{
  "abi": [
    {
      "inputs": [
        {
          "internalType": "address",
          "name": "_admin",
          "type": "address"
        },
        {
          "internalType": "address[]",
          "name": "payees",
          "type": "address[]"
        },
        {
          "internalType": "uint256[]",
          "name": "shares",
          "type": "uint256[]"
        }
      ],
      "stateMutability": "nonpayable",
      "type": "constructor"
    },
    {
      "inputs": [],
      "name": "ApprovalCallerNotOwnerNorApproved",
      "type": "error"
    },
    {
      "inputs": [],
      "name": "ApprovalQueryForNonexistentToken",
      "type": "error"
    },
    {
      "inputs": [],
      "name": "BalanceQueryForZeroAddress",
      "type": "error"
    },
    {
      "inputs": [],
      "name": "MintERC2309QuantityExceedsLimit",
      "type": "error"
    },
    {
      "inputs": [],
      "name": "MintToZeroAddress",
      "type": "error"
    },
    {
      "inputs": [],
      "name": "MintZeroQuantity",
      "type": "error"
    },
    {
      "inputs": [
        {
          "internalType": "address",
          "name": "have",
          "type": "address"
        },
        {
          "internalType": "address",
          "name": "want",
          "type": "address"
        }
      ],
      "name": "OnlyCoordinatorCanFulfill",
      "type": "error"
    },
    {
      "inputs": [],
      "name": "OwnerQueryForNonexistentToken",
      "type": "error"
    },
    {
      "inputs": [],
      "name": "OwnershipNotInitializedForExtraData",
      "type": "error"
    },
    {
      "inputs": [],
      "name": "TransferCallerNotOwnerNorApproved",
      "type": "error"
    },
    {
      "inputs": [],
      "name": "TransferFromIncorrectOwner",
      "type": "error"
    },
    {
      "inputs": [],
      "name": "TransferToNonERC721ReceiverImplementer",
      "type": "error"
    },
    {
      "inputs": [],
      "name": "TransferToZeroAddress",
      "type": "error"
    },
    {
      "inputs": [],
      "name": "URIQueryForNonexistentToken",
      "type": "error"
    },
    {
      "anonymous": false,
      "inputs": [
        {
          "indexed": true,
          "internalType": "address",
          "name": "owner",
          "type": "address"
        },
        {
          "indexed": true,
          "internalType": "address",
          "name": "approved",
          "type": "address"
        },
        {
          "indexed": true,
          "internalType": "uint256",
          "name": "tokenId",
          "type": "uint256"
        }
      ],
      "name": "Approval",
      "type": "event"
    },
    {
      "anonymous": false,
      "inputs": [
        {
          "indexed": true,
          "internalType": "address",
          "name": "owner",
          "type": "address"
        },
        {
          "indexed": true,
          "internalType": "address",
          "name": "operator",
          "type": "address"
        },
        {
          "indexed": false,
          "internalType": "bool",
          "name": "approved",
          "type": "bool"
        }
      ],
      "name": "ApprovalForAll",
      "type": "event"
    },
    {
      "anonymous": false,
      "inputs": [
        {
          "indexed": true,
          "internalType": "uint256",
          "name": "fromTokenId",
          "type": "uint256"
        },
        {
          "indexed": false,
          "internalType": "uint256",
          "name": "toTokenId",
          "type": "uint256"
        },
        {
          "indexed": true,
          "internalType": "address",
          "name": "from",
          "type": "address"
        },
        {
          "indexed": true,
          "internalType": "address",
          "name": "to",
          "type": "address"
        }
      ],
      "name": "ConsecutiveTransfer",
      "type": "event"
    },
    {
      "anonymous": false,
      "inputs": [
        {
          "indexed": true,
          "internalType": "contract IERC20",
          "name": "token",
          "type": "address"
        },
        {
          "indexed": false,
          "internalType": "address",
          "name": "to",
          "type": "address"
        },
        {
          "indexed": false,
          "internalType": "uint256",
          "name": "amount",
          "type": "uint256"
        }
      ],
      "name": "ERC20PaymentReleased",
      "type": "event"
    },
    {
      "anonymous": false,
      "inputs": [
        {
          "indexed": false,
          "internalType": "address",
          "name": "account",
          "type": "address"
        },
        {
          "indexed": false,
          "internalType": "uint256",
          "name": "shares",
          "type": "uint256"
        }
      ],
      "name": "PayeeAdded",
      "type": "event"
    },
    {
      "anonymous": false,
      "inputs": [
        {
          "indexed": false,
          "internalType": "address",
          "name": "from",
          "type": "address"
        },
        {
          "indexed": false,
          "internalType": "uint256",
          "name": "amount",
          "type": "uint256"
        }
      ],
      "name": "PaymentReceived",
      "type": "event"
    },
    {
      "anonymous": false,
      "inputs": [
        {
          "indexed": false,
          "internalType": "address",
          "name": "to",
          "type": "address"
        },
        {
          "indexed": false,
          "internalType": "uint256",
          "name": "amount",
          "type": "uint256"
        }
      ],
      "name": "PaymentReleased",
      "type": "event"
    },
    {
      "anonymous": false,
      "inputs": [
        {
          "indexed": true,
          "internalType": "bytes32",
          "name": "role",
          "type": "bytes32"
        },
        {
          "indexed": true,
          "internalType": "bytes32",
          "name": "previousAdminRole",
          "type": "bytes32"
        },
        {
          "indexed": true,
          "internalType": "bytes32",
          "name": "newAdminRole",
          "type": "bytes32"
        }
      ],
      "name": "RoleAdminChanged",
      "type": "event"
    },
    {
      "anonymous": false,
      "inputs": [
        {
          "indexed": true,
          "internalType": "bytes32",
          "name": "role",
          "type": "bytes32"
        },
        {
          "indexed": true,
          "internalType": "address",
          "name": "account",
          "type": "address"
        },
        {
          "indexed": true,
          "internalType": "address",
          "name": "sender",
          "type": "address"
        }
      ],
      "name": "RoleGranted",
      "type": "event"
    },
    {
      "anonymous": false,
      "inputs": [
        {
          "indexed": true,
          "internalType": "bytes32",
          "name": "role",
          "type": "bytes32"
        },
        {
          "indexed": true,
          "internalType": "address",
          "name": "account",
          "type": "address"
        },
        {
          "indexed": true,
          "internalType": "address",
          "name": "sender",
          "type": "address"
        }
      ],
      "name": "RoleRevoked",
      "type": "event"
    },
    {
      "anonymous": false,
      "inputs": [
        {
          "indexed": true,
          "internalType": "address",
          "name": "from",
          "type": "address"
        },
        {
          "indexed": true,
          "internalType": "address",
          "name": "to",
          "type": "address"
        },
        {
          "indexed": true,
          "internalType": "uint256",
          "name": "tokenId",
          "type": "uint256"
        }
      ],
      "name": "Transfer",
      "type": "event"
    },
    {
      "inputs": [],
      "name": "DEFAULT_ADMIN_ROLE",
      "outputs": [
        {
          "internalType": "bytes32",
          "name": "",
          "type": "bytes32"
        }
      ],
      "stateMutability": "view",
      "type": "function"
    },
    {
      "inputs": [],
      "name": "MAX_SUPPLY",
      "outputs": [
        {
          "internalType": "uint256",
          "name": "",
          "type": "uint256"
        }
      ],
      "stateMutability": "view",
      "type": "function"
    },
    {
      "inputs": [],
      "name": "PROVENANCE_HASH",
      "outputs": [
        {
          "internalType": "string",
          "name": "",
          "type": "string"
        }
      ],
      "stateMutability": "view",
      "type": "function"
    },
    {
      "inputs": [],
      "name": "RESERVE",
      "outputs": [
        {
          "internalType": "uint256",
          "name": "",
          "type": "uint256"
        }
      ],
      "stateMutability": "view",
      "type": "function"
    },
    {
      "inputs": [
        {
          "internalType": "address",
          "name": "to",
          "type": "address"
        },
        {
          "internalType": "uint256",
          "name": "tokenId",
          "type": "uint256"
        }
      ],
      "name": "approve",
      "outputs": [],
      "stateMutability": "nonpayable",
      "type": "function"
    },
    {
      "inputs": [
        {
          "internalType": "address",
          "name": "owner",
          "type": "address"
        }
      ],
      "name": "balanceOf",
      "outputs": [
        {
          "internalType": "uint256",
          "name": "",
          "type": "uint256"
        }
      ],
      "stateMutability": "view",
      "type": "function"
    },
    {
      "inputs": [],
      "name": "baseURI_",
      "outputs": [
        {
          "internalType": "string",
          "name": "",
          "type": "string"
        }
      ],
      "stateMutability": "view",
      "type": "function"
    },
    {
      "inputs": [],
      "name": "callbackGasLimit",
      "outputs": [
        {
          "internalType": "uint32",
          "name": "",
          "type": "uint32"
        }
      ],
      "stateMutability": "view",
      "type": "function"
    },
    {
      "inputs": [],
      "name": "gasLaneKeyHash",
      "outputs": [
        {
          "internalType": "bytes32",
          "name": "",
          "type": "bytes32"
        }
      ],
      "stateMutability": "view",
      "type": "function"
    },
    {
      "inputs": [],
      "name": "generateTokenOffset",
      "outputs": [],
      "stateMutability": "nonpayable",
      "type": "function"
    },
    {
      "inputs": [
        {
          "internalType": "uint256",
          "name": "tokenId",
          "type": "uint256"
        }
      ],
      "name": "getApproved",
      "outputs": [
        {
          "internalType": "address",
          "name": "",
          "type": "address"
        }
      ],
      "stateMutability": "view",
      "type": "function"
    },
    {
      "inputs": [
        {
          "internalType": "bytes32",
          "name": "role",
          "type": "bytes32"
        }
      ],
      "name": "getRoleAdmin",
      "outputs": [
        {
          "internalType": "bytes32",
          "name": "",
          "type": "bytes32"
        }
      ],
      "stateMutability": "view",
      "type": "function"
    },
    {
      "inputs": [
        {
          "internalType": "bytes32",
          "name": "role",
          "type": "bytes32"
        },
        {
          "internalType": "uint256",
          "name": "index",
          "type": "uint256"
        }
      ],
      "name": "getRoleMember",
      "outputs": [
        {
          "internalType": "address",
          "name": "",
          "type": "address"
        }
      ],
      "stateMutability": "view",
      "type": "function"
    },
    {
      "inputs": [
        {
          "internalType": "bytes32",
          "name": "role",
          "type": "bytes32"
        }
      ],
      "name": "getRoleMemberCount",
      "outputs": [
        {
          "internalType": "uint256",
          "name": "",
          "type": "uint256"
        }
      ],
      "stateMutability": "view",
      "type": "function"
    },
    {
      "inputs": [
        {
          "internalType": "bytes32",
          "name": "role",
          "type": "bytes32"
        },
        {
          "internalType": "address",
          "name": "account",
          "type": "address"
        }
      ],
      "name": "grantRole",
      "outputs": [],
      "stateMutability": "nonpayable",
      "type": "function"
    },
    {
      "inputs": [
        {
          "internalType": "bytes32",
          "name": "role",
          "type": "bytes32"
        },
        {
          "internalType": "address",
          "name": "account",
          "type": "address"
        }
      ],
      "name": "hasRole",
      "outputs": [
        {
          "internalType": "bool",
          "name": "",
          "type": "bool"
        }
      ],
      "stateMutability": "view",
      "type": "function"
    },
    {
      "inputs": [
        {
          "internalType": "address",
          "name": "owner",
          "type": "address"
        },
        {
          "internalType": "address",
          "name": "operator",
          "type": "address"
        }
      ],
      "name": "isApprovedForAll",
      "outputs": [
        {
          "internalType": "bool",
          "name": "",
          "type": "bool"
        }
      ],
      "stateMutability": "view",
      "type": "function"
    },
    {
      "inputs": [],
      "name": "isSaleActive",
      "outputs": [
        {
          "internalType": "bool",
          "name": "",
          "type": "bool"
        }
      ],
      "stateMutability": "view",
      "type": "function"
    },
    {
      "inputs": [],
      "name": "linkSubscriptionId",
      "outputs": [
        {
          "internalType": "uint64",
          "name": "",
          "type": "uint64"
        }
      ],
      "stateMutability": "view",
      "type": "function"
    },
    {
      "inputs": [],
      "name": "lockMinting",
      "outputs": [],
      "stateMutability": "nonpayable",
      "type": "function"
    },
    {
      "inputs": [],
      "name": "maxPerWallet",
      "outputs": [
        {
          "internalType": "uint256",
          "name": "",
          "type": "uint256"
        }
      ],
      "stateMutability": "view",
      "type": "function"
    },
    {
      "inputs": [
        {
          "internalType": "uint256",
          "name": "_amount",
          "type": "uint256"
        },
        {
          "internalType": "address",
          "name": "_to",
          "type": "address"
        }
      ],
      "name": "mint",
      "outputs": [],
      "stateMutability": "payable",
      "type": "function"
    },
    {
      "inputs": [],
      "name": "mintPrice",
      "outputs": [
        {
          "internalType": "uint256",
          "name": "",
          "type": "uint256"
        }
      ],
      "stateMutability": "view",
      "type": "function"
    },
    {
      "inputs": [],
      "name": "mintingLocked",
      "outputs": [
        {
          "internalType": "bool",
          "name": "",
          "type": "bool"
        }
      ],
      "stateMutability": "view",
      "type": "function"
    },
    {
      "inputs": [],
      "name": "name",
      "outputs": [
        {
          "internalType": "string",
          "name": "",
          "type": "string"
        }
      ],
      "stateMutability": "view",
      "type": "function"
    },
    {
      "inputs": [],
      "name": "owner",
      "outputs": [
        {
          "internalType": "address",
          "name": "",
          "type": "address"
        }
      ],
      "stateMutability": "view",
      "type": "function"
    },
    {
      "inputs": [
        {
          "internalType": "uint256",
          "name": "tokenId",
          "type": "uint256"
        }
      ],
      "name": "ownerOf",
      "outputs": [
        {
          "internalType": "address",
          "name": "",
          "type": "address"
        }
      ],
      "stateMutability": "view",
      "type": "function"
    },
    {
      "inputs": [
        {
          "internalType": "uint256",
          "name": "index",
          "type": "uint256"
        }
      ],
      "name": "payee",
      "outputs": [
        {
          "internalType": "address",
          "name": "",
          "type": "address"
        }
      ],
      "stateMutability": "view",
      "type": "function"
    },
    {
      "inputs": [
        {
          "internalType": "address",
          "name": "_to",
          "type": "address"
        }
      ],
      "name": "premint",
      "outputs": [],
      "stateMutability": "nonpayable",
      "type": "function"
    },
    {
      "inputs": [],
      "name": "preminted",
      "outputs": [
        {
          "internalType": "bool",
          "name": "",
          "type": "bool"
        }
      ],
      "stateMutability": "view",
      "type": "function"
    },
    {
      "inputs": [],
      "name": "randomRequestId",
      "outputs": [
        {
          "internalType": "uint256",
          "name": "",
          "type": "uint256"
        }
      ],
      "stateMutability": "view",
      "type": "function"
    },
    {
      "inputs": [
        {
          "internalType": "uint256",
          "name": "requestId",
          "type": "uint256"
        },
        {
          "internalType": "uint256[]",
          "name": "randomWords",
          "type": "uint256[]"
        }
      ],
      "name": "rawFulfillRandomWords",
      "outputs": [],
      "stateMutability": "nonpayable",
      "type": "function"
    },
    {
      "inputs": [
        {
          "internalType": "address",
          "name": "account",
          "type": "address"
        }
      ],
      "name": "releasable",
      "outputs": [
        {
          "internalType": "uint256",
          "name": "",
          "type": "uint256"
        }
      ],
      "stateMutability": "view",
      "type": "function"
    },
    {
      "inputs": [
        {
          "internalType": "contract IERC20",
          "name": "token",
          "type": "address"
        },
        {
          "internalType": "address",
          "name": "account",
          "type": "address"
        }
      ],
      "name": "releasable",
      "outputs": [
        {
          "internalType": "uint256",
          "name": "",
          "type": "uint256"
        }
      ],
      "stateMutability": "view",
      "type": "function"
    },
    {
      "inputs": [
        {
          "internalType": "address payable",
          "name": "account",
          "type": "address"
        }
      ],
      "name": "release",
      "outputs": [],
      "stateMutability": "nonpayable",
      "type": "function"
    },
    {
      "inputs": [
        {
          "internalType": "contract IERC20",
          "name": "token",
          "type": "address"
        },
        {
          "internalType": "address",
          "name": "account",
          "type": "address"
        }
      ],
      "name": "release",
      "outputs": [],
      "stateMutability": "nonpayable",
      "type": "function"
    },
    {
      "inputs": [
        {
          "internalType": "contract IERC20",
          "name": "token",
          "type": "address"
        },
        {
          "internalType": "address",
          "name": "account",
          "type": "address"
        }
      ],
      "name": "released",
      "outputs": [
        {
          "internalType": "uint256",
          "name": "",
          "type": "uint256"
        }
      ],
      "stateMutability": "view",
      "type": "function"
    },
    {
      "inputs": [
        {
          "internalType": "address",
          "name": "account",
          "type": "address"
        }
      ],
      "name": "released",
      "outputs": [
        {
          "internalType": "uint256",
          "name": "",
          "type": "uint256"
        }
      ],
      "stateMutability": "view",
      "type": "function"
    },
    {
      "inputs": [
        {
          "internalType": "bytes32",
          "name": "role",
          "type": "bytes32"
        },
        {
          "internalType": "address",
          "name": "account",
          "type": "address"
        }
      ],
      "name": "renounceRole",
      "outputs": [],
      "stateMutability": "nonpayable",
      "type": "function"
    },
    {
      "inputs": [],
      "name": "requestConfirmations",
      "outputs": [
        {
          "internalType": "uint16",
          "name": "",
          "type": "uint16"
        }
      ],
      "stateMutability": "view",
      "type": "function"
    },
    {
      "inputs": [],
      "name": "revealed",
      "outputs": [
        {
          "internalType": "bool",
          "name": "",
          "type": "bool"
        }
      ],
      "stateMutability": "view",
      "type": "function"
    },
    {
      "inputs": [
        {
          "internalType": "bytes32",
          "name": "role",
          "type": "bytes32"
        },
        {
          "internalType": "address",
          "name": "account",
          "type": "address"
        }
      ],
      "name": "revokeRole",
      "outputs": [],
      "stateMutability": "nonpayable",
      "type": "function"
    },
    {
      "inputs": [
        {
          "internalType": "address",
          "name": "from",
          "type": "address"
        },
        {
          "internalType": "address",
          "name": "to",
          "type": "address"
        },
        {
          "internalType": "uint256",
          "name": "tokenId",
          "type": "uint256"
        }
      ],
      "name": "safeTransferFrom",
      "outputs": [],
      "stateMutability": "nonpayable",
      "type": "function"
    },
    {
      "inputs": [
        {
          "internalType": "address",
          "name": "from",
          "type": "address"
        },
        {
          "internalType": "address",
          "name": "to",
          "type": "address"
        },
        {
          "internalType": "uint256",
          "name": "tokenId",
          "type": "uint256"
        },
        {
          "internalType": "bytes",
          "name": "_data",
          "type": "bytes"
        }
      ],
      "name": "safeTransferFrom",
      "outputs": [],
      "stateMutability": "nonpayable",
      "type": "function"
    },
    {
      "inputs": [
        {
          "internalType": "address",
          "name": "operator",
          "type": "address"
        },
        {
          "internalType": "bool",
          "name": "approved",
          "type": "bool"
        }
      ],
      "name": "setApprovalForAll",
      "outputs": [],
      "stateMutability": "nonpayable",
      "type": "function"
    },
    {
      "inputs": [
        {
          "internalType": "string",
          "name": "__baseURI",
          "type": "string"
        }
      ],
      "name": "setBaseURI",
      "outputs": [],
      "stateMutability": "nonpayable",
      "type": "function"
    },
    {
      "inputs": [
        {
          "internalType": "uint32",
          "name": "_callbackGasLimit",
          "type": "uint32"
        }
      ],
      "name": "setCallbackGasLimit",
      "outputs": [],
      "stateMutability": "nonpayable",
      "type": "function"
    },
    {
      "inputs": [
        {
          "internalType": "bytes32",
          "name": "_gasLaneKeyHash",
          "type": "bytes32"
        }
      ],
      "name": "setGasLaneKeyHash",
      "outputs": [],
      "stateMutability": "nonpayable",
      "type": "function"
    },
    {
      "inputs": [
        {
          "internalType": "bool",
          "name": "_isSaleActive",
          "type": "bool"
        }
      ],
      "name": "setIsSaleActive",
      "outputs": [],
      "stateMutability": "nonpayable",
      "type": "function"
    },
    {
      "inputs": [
        {
          "internalType": "uint64",
          "name": "_linkSubscriptionId",
          "type": "uint64"
        }
      ],
      "name": "setLinkSubscriptionId",
      "outputs": [],
      "stateMutability": "nonpayable",
      "type": "function"
    },
    {
      "inputs": [
        {
          "internalType": "uint256",
          "name": "_maxPerWallet",
          "type": "uint256"
        }
      ],
      "name": "setMaxMintPerWallet",
      "outputs": [],
      "stateMutability": "nonpayable",
      "type": "function"
    },
    {
      "inputs": [
        {
          "internalType": "uint256",
          "name": "_mintPrice",
          "type": "uint256"
        }
      ],
      "name": "setMintPrice",
      "outputs": [],
      "stateMutability": "nonpayable",
      "type": "function"
    },
    {
      "inputs": [
        {
          "internalType": "uint16",
          "name": "_requestConfirmations",
          "type": "uint16"
        }
      ],
      "name": "setRequestConfirmations",
      "outputs": [],
      "stateMutability": "nonpayable",
      "type": "function"
    },
    {
      "inputs": [
        {
          "internalType": "bool",
          "name": "_revealed",
          "type": "bool"
        }
      ],
      "name": "setRevealed",
      "outputs": [],
      "stateMutability": "nonpayable",
      "type": "function"
    },
    {
      "inputs": [
        {
          "internalType": "address",
          "name": "account",
          "type": "address"
        }
      ],
      "name": "shares",
      "outputs": [
        {
          "internalType": "uint256",
          "name": "",
          "type": "uint256"
        }
      ],
      "stateMutability": "view",
      "type": "function"
    },
    {
      "inputs": [
        {
          "internalType": "bytes4",
          "name": "interfaceID",
          "type": "bytes4"
        }
      ],
      "name": "supportsInterface",
      "outputs": [
        {
          "internalType": "bool",
          "name": "",
          "type": "bool"
        }
      ],
      "stateMutability": "view",
      "type": "function"
    },
    {
      "inputs": [],
      "name": "symbol",
      "outputs": [
        {
          "internalType": "string",
          "name": "",
          "type": "string"
        }
      ],
      "stateMutability": "view",
      "type": "function"
    },
    {
      "inputs": [],
      "name": "tokenOffset",
      "outputs": [
        {
          "internalType": "uint256",
          "name": "",
          "type": "uint256"
        }
      ],
      "stateMutability": "view",
      "type": "function"
    },
    {
      "inputs": [
        {
          "internalType": "uint256",
          "name": "tokenId",
          "type": "uint256"
        }
      ],
      "name": "tokenURI",
      "outputs": [
        {
          "internalType": "string",
          "name": "",
          "type": "string"
        }
      ],
      "stateMutability": "view",
      "type": "function"
    },
    {
      "inputs": [
        {
          "internalType": "contract IERC20",
          "name": "token",
          "type": "address"
        }
      ],
      "name": "totalReleased",
      "outputs": [
        {
          "internalType": "uint256",
          "name": "",
          "type": "uint256"
        }
      ],
      "stateMutability": "view",
      "type": "function"
    },
    {
      "inputs": [],
      "name": "totalReleased",
      "outputs": [
        {
          "internalType": "uint256",
          "name": "",
          "type": "uint256"
        }
      ],
      "stateMutability": "view",
      "type": "function"
    },
    {
      "inputs": [],
      "name": "totalShares",
      "outputs": [
        {
          "internalType": "uint256",
          "name": "",
          "type": "uint256"
        }
      ],
      "stateMutability": "view",
      "type": "function"
    },
    {
      "inputs": [],
      "name": "totalSupply",
      "outputs": [
        {
          "internalType": "uint256",
          "name": "",
          "type": "uint256"
        }
      ],
      "stateMutability": "view",
      "type": "function"
    },
    {
      "inputs": [
        {
          "internalType": "address",
          "name": "from",
          "type": "address"
        },
        {
          "internalType": "address",
          "name": "to",
          "type": "address"
        },
        {
          "internalType": "uint256",
          "name": "tokenId",
          "type": "uint256"
        }
      ],
      "name": "transferFrom",
      "outputs": [],
      "stateMutability": "nonpayable",
      "type": "function"
    },
    {
      "stateMutability": "payable",
      "type": "receive"
    }
  ],
  "bytecode": {
    "object": "0x60a0604052600a60115566f52322698080006012553480156200002157600080fd5b5060405162003b3238038062003b3283398101604081905262000044916200078c565b604080518082018252600f81526e4d616420506172726f74204372657760881b6020808301918252835180850190945260038452624d504360e81b90840152815173271682deb8c4e0901d1a1550ad2e64d568e6990993869386939092620000af91600291620005e7565b508051620000c5906003906020840190620005e7565b5060008055505080518251146200013e5760405162461bcd60e51b815260206004820152603260248201527f5061796d656e7453706c69747465723a2070617965657320616e6420736861726044820152710cae640d8cadccee8d040dad2e6dac2e8c6d60731b60648201526084015b60405180910390fd5b6000825111620001915760405162461bcd60e51b815260206004820152601a60248201527f5061796d656e7453706c69747465723a206e6f20706179656573000000000000604482015260640162000135565b60005b8251811015620001fd57620001e8838281518110620001b757620001b762000870565b6020026020010151838381518110620001d457620001d462000870565b60200260200101516200029f60201b60201c565b80620001f4816200089c565b91505062000194565b5050506001600160a01b0316608052620002196000846200048d565b620002266000336200048d565b505060148054600160201b600160c01b03191677271682deb8c4e0901d1a1550ad2e64d568e6990900000000179055507f8af398995b04c28e9951adb9721ef74c74f93e6a478f39e7e0777be13527e7ef601555601680546001600160701b0319166c0300061a8000000000000000251790556200090f565b6001600160a01b0382166200030c5760405162461bcd60e51b815260206004820152602c60248201527f5061796d656e7453706c69747465723a206163636f756e74206973207468652060448201526b7a65726f206164647265737360a01b606482015260840162000135565b600081116200035e5760405162461bcd60e51b815260206004820152601d60248201527f5061796d656e7453706c69747465723a20736861726573206172652030000000604482015260640162000135565b6001600160a01b0382166000908152600a602052604090205415620003da5760405162461bcd60e51b815260206004820152602b60248201527f5061796d656e7453706c69747465723a206163636f756e7420616c726561647960448201526a206861732073686172657360a81b606482015260840162000135565b600c8054600181019091557fdf6966c971051c3d54ec59162606531493a51404a002842f56009d7e5cf4a8c70180546001600160a01b0319166001600160a01b0384169081179091556000908152600a6020526040902081905560085462000444908290620008b8565b600855604080516001600160a01b0384168152602081018390527f40c340f65e17194d14ddddb073d3c9f888e3cb52b5aae0c6c7706b4fbc905fac910160405180910390a15050565b620004a48282620004d060201b62001ccb1760201c565b6000828152601060209081526040909120620004cb91839062001d5162000575821b17901c565b505050565b6000828152600f602090815260408083206001600160a01b038516845290915290205460ff1662000571576000828152600f602090815260408083206001600160a01b03851684529091529020805460ff19166001179055620005303390565b6001600160a01b0316816001600160a01b0316837f2f8788117e7eff1d82e926ec794901d17c78024a50270940304540a733656f0d60405160405180910390a45b5050565b60006200058c836001600160a01b03841662000595565b90505b92915050565b6000818152600183016020526040812054620005de575081546001818101845560008481526020808220909301849055845484825282860190935260409020919091556200058f565b5060006200058f565b828054620005f590620008d3565b90600052602060002090601f01602090048101928262000619576000855562000664565b82601f106200063457805160ff191683800117855562000664565b8280016001018555821562000664579182015b828111156200066457825182559160200191906001019062000647565b506200067292915062000676565b5090565b5b8082111562000672576000815560010162000677565b80516001600160a01b0381168114620006a557600080fd5b919050565b634e487b7160e01b600052604160045260246000fd5b604051601f8201601f191681016001600160401b0381118282101715620006eb57620006eb620006aa565b604052919050565b60006001600160401b038211156200070f576200070f620006aa565b5060051b60200190565b600082601f8301126200072b57600080fd5b81516020620007446200073e83620006f3565b620006c0565b82815260059290921b840181019181810190868411156200076457600080fd5b8286015b8481101562000781578051835291830191830162000768565b509695505050505050565b600080600060608486031215620007a257600080fd5b620007ad846200068d565b602085810151919450906001600160401b0380821115620007cd57600080fd5b818701915087601f830112620007e257600080fd5b8151620007f36200073e82620006f3565b81815260059190911b8301840190848101908a8311156200081357600080fd5b938501935b828510156200083c576200082c856200068d565b8252938501939085019062000818565b60408a015190975094505050808311156200085657600080fd5b5050620008668682870162000719565b9150509250925092565b634e487b7160e01b600052603260045260246000fd5b634e487b7160e01b600052601160045260246000fd5b600060018201620008b157620008b162000886565b5060010190565b60008219821115620008ce57620008ce62000886565b500190565b600181811c90821680620008e857607f821691505b6020821081036200090957634e487b7160e01b600052602260045260246000fd5b50919050565b6080516132006200093260003960008181611030015261107201526132006000f3fe6080604052600436106103c75760003560e01c80638b83209b116101f2578063b88d4fde1161010d578063dc8c57b4116100a0578063ee0776251161006f578063ee07762514610c14578063f259a29e14610c29578063f4a0a52814610c3e578063ff1b655614610c5e57600080fd5b8063dc8c57b414610b80578063e0a8085314610b96578063e33b7de314610bb6578063e985e9c514610bcb57600080fd5b8063ce7c2ac2116100dc578063ce7c2ac214610ad4578063d2d65ff514610b0a578063d547741f14610b2a578063d79779b214610b4a57600080fd5b8063b88d4fde14610a54578063c45ac05014610a74578063c87b56dd14610a94578063ca15c87314610ab457600080fd5b80639d2cc43611610185578063a4eb718c11610154578063a4eb718c146109c9578063a81488bd146109e9578063afdf6134146109ff578063b0fb162f14610a1f57600080fd5b80639d2cc4361461095f578063a217fddf14610974578063a22cb46514610989578063a3f8eace146109a957600080fd5b806391d14854116101c157806391d14854146108e157806394bf804d1461090157806395d89b41146109145780639852595c1461092957600080fd5b80638b83209b146108765780638d323a8b146108965780638da5cb5b146108ac5780639010d07c146108c157600080fd5b8063357b794e116102e257806351830227116102755780636352211e116102445780636352211e146108005780636817c76c1461082057806370a08231146108365780638824f5a71461085657600080fd5b8063518302271461076f57806355f804b314610789578063564566a8146107a95780635a3d84b4146107c857600080fd5b806342842e0e116102b157806342842e0e146106f9578063453c23101461071957806348b750441461072f5780634ab5927e1461074f57600080fd5b8063357b794e1461065d57806336568abe1461067e5780633a98ef391461069e578063406072a9146106b357600080fd5b806318160ddd1161035a578063248a9ca311610329578063248a9ca3146105be57806324f74697146105ee5780632f2ff15d1461062757806332cb6b0c1461064757600080fd5b806318160ddd1461053b578063191655871461055e5780631fe543e31461057e57806323b872dd1461059e57600080fd5b80630bf5c67f116103965780630bf5c67f146104c65780630d7982ad146104e65780630fc50ebb146104fb578063140370681461051b57600080fd5b806301ffc9a71461041557806306fdde031461044a578063081812fc1461046c578063095ea7b3146104a457600080fd5b36610410577f6ef95f06320e7a25a04a175ca677b7052bdd97131872c2192525a629f51be77033604080516001600160a01b0390921682523460208301520160405180910390a1005b600080fd5b34801561042157600080fd5b50610435610430366004612a45565b610c81565b60405190151581526020015b60405180910390f35b34801561045657600080fd5b5061045f610ca1565b6040516104419190612aba565b34801561047857600080fd5b5061048c610487366004612acd565b610d33565b6040516001600160a01b039091168152602001610441565b3480156104b057600080fd5b506104c46104bf366004612afb565b610d77565b005b3480156104d257600080fd5b506104c46104e1366004612b27565b610e17565b3480156104f257600080fd5b506104c4610e46565b34801561050757600080fd5b506014546104359062010000900460ff1681565b34801561052757600080fd5b506104c4610536366004612b50565b610ec3565b34801561054757600080fd5b50600154600054035b604051908152602001610441565b34801561056a57600080fd5b506104c4610579366004612b50565b610f3e565b34801561058a57600080fd5b506104c4610599366004612bb3565b611025565b3480156105aa57600080fd5b506104c46105b9366004612c64565b6110ad565b3480156105ca57600080fd5b506105506105d9366004612acd565b6000908152600f602052604090206001015490565b3480156105fa57600080fd5b5060165461061290600160401b900463ffffffff1681565b60405163ffffffff9091168152602001610441565b34801561063357600080fd5b506104c4610642366004612ca5565b611245565b34801561065357600080fd5b50610550611b3981565b34801561066957600080fd5b50601454610435906301000000900460ff1681565b34801561068a57600080fd5b506104c4610699366004612ca5565b61126f565b3480156106aa57600080fd5b50600854610550565b3480156106bf57600080fd5b506105506106ce366004612cd5565b6001600160a01b039182166000908152600e6020908152604080832093909416825291909152205490565b34801561070557600080fd5b506104c4610714366004612c64565b6112e9565b34801561072557600080fd5b5061055060115481565b34801561073b57600080fd5b506104c461074a366004612cd5565b611304565b34801561075b57600080fd5b506104c461076a366004612acd565b611415565b34801561077b57600080fd5b506014546104359060ff1681565b34801561079557600080fd5b506104c46107a4366004612d5a565b611426565b3480156107b557600080fd5b5060145461043590610100900460ff1681565b3480156107d457600080fd5b506016546107e8906001600160401b031681565b6040516001600160401b039091168152602001610441565b34801561080c57600080fd5b5061048c61081b366004612acd565b61148a565b34801561082c57600080fd5b5061055060125481565b34801561084257600080fd5b50610550610851366004612b50565b611495565b34801561086257600080fd5b506104c4610871366004612da2565b6114e3565b34801561088257600080fd5b5061048c610891366004612acd565b611511565b3480156108a257600080fd5b5061055060175481565b3480156108b857600080fd5b5061048c611541565b3480156108cd57600080fd5b5061048c6108dc366004612dc6565b611552565b3480156108ed57600080fd5b506104356108fc366004612ca5565b611571565b6104c461090f366004612ca5565b61159c565b34801561092057600080fd5b5061045f611764565b34801561093557600080fd5b50610550610944366004612b50565b6001600160a01b03166000908152600b602052604090205490565b34801561096b57600080fd5b50610550601e81565b34801561098057600080fd5b50610550600081565b34801561099557600080fd5b506104c46109a4366004612df6565b611773565b3480156109b557600080fd5b506105506109c4366004612b50565b6117df565b3480156109d557600080fd5b506104c46109e4366004612e24565b611820565b3480156109f557600080fd5b5061055060155481565b348015610a0b57600080fd5b506104c4610a1a366004612acd565b611857565b348015610a2b57600080fd5b50601654610a4190600160601b900461ffff1681565b60405161ffff9091168152602001610441565b348015610a6057600080fd5b506104c4610a6f366004612e4a565b611868565b348015610a8057600080fd5b50610550610a8f366004612cd5565b6118b2565b348015610aa057600080fd5b5061045f610aaf366004612acd565b61197d565b348015610ac057600080fd5b50610550610acf366004612acd565b611a00565b348015610ae057600080fd5b50610550610aef366004612b50565b6001600160a01b03166000908152600a602052604090205490565b348015610b1657600080fd5b506104c4610b25366004612ec9565b611a17565b348015610b3657600080fd5b506104c4610b45366004612ca5565b611a8c565b348015610b5657600080fd5b50610550610b65366004612b50565b6001600160a01b03166000908152600d602052604090205490565b348015610b8c57600080fd5b5061055060185481565b348015610ba257600080fd5b506104c4610bb1366004612ec9565b611ab1565b348015610bc257600080fd5b50600954610550565b348015610bd757600080fd5b50610435610be6366004612cd5565b6001600160a01b03918216600090815260076020908152604080832093909416825291909152205460ff1690565b348015610c2057600080fd5b506104c4611b16565b348015610c3557600080fd5b5061045f611c2c565b348015610c4a57600080fd5b506104c4610c59366004612acd565b611cba565b348015610c6a57600080fd5b5061045f6040518060200160405280600081525081565b6000610c8c82611d66565b80610c9b5750610c9b82611db4565b92915050565b606060028054610cb090612ee6565b80601f0160208091040260200160405190810160405280929190818152602001828054610cdc90612ee6565b8015610d295780601f10610cfe57610100808354040283529160200191610d29565b820191906000526020600020905b815481529060010190602001808311610d0c57829003601f168201915b5050505050905090565b6000610d3e82611dd9565b610d5b576040516333d1c03960e21b815260040160405180910390fd5b506000908152600660205260409020546001600160a01b031690565b6000610d828261148a565b9050336001600160a01b03821614610dbb57610d9e8133610be6565b610dbb576040516367d9dca160e11b815260040160405180910390fd5b60008281526006602052604080822080546001600160a01b0319166001600160a01b0387811691821790925591518593918516917f8c5be1e5ebec7d5bd14f71427d1e84f3dd0314c0f7b2291e5b200ac8c7c3b92591a4505050565b6000610e2281611e00565b506016805467ffffffffffffffff19166001600160401b0392909216919091179055565b6000610e5181611e00565b60145462010000900460ff1615610eaf5760405162461bcd60e51b815260206004820152601960248201527f4d696e74696e6720697320616c7265616479206c6f636b65640000000000000060448201526064015b60405180910390fd5b506014805462ffff00191662010000179055565b6000610ece81611e00565b6014546301000000900460ff1615610f1c5760405162461bcd60e51b8152602060048201526011602482015270105b1c9958591e481c1c995b5a5b9d1959607a1b6044820152606401610ea6565b610f2782601e611e0d565b50506014805463ff00000019166301000000179055565b6001600160a01b0381166000908152600a6020526040902054610f735760405162461bcd60e51b8152600401610ea690612f20565b6000610f7e826117df565b905080600003610fa05760405162461bcd60e51b8152600401610ea690612f66565b8060096000828254610fb29190612fc7565b90915550506001600160a01b0382166000908152600b60205260409020805482019055610fdf8282611e27565b604080516001600160a01b0384168152602081018390527fdf20fd1e76bc69d672e4814fafb2c449bba3a5369d8359adf9e05e6fde87b056910160405180910390a15050565b336001600160a01b037f0000000000000000000000000000000000000000000000000000000000000000161461109f5760405163073e64fd60e21b81523360048201526001600160a01b037f0000000000000000000000000000000000000000000000000000000000000000166024820152604401610ea6565b6110a98282611f40565b5050565b60006110b882611f90565b9050836001600160a01b0316816001600160a01b0316146110eb5760405162a1148160e81b815260040160405180910390fd5b60008281526006602052604090208054338082146001600160a01b038816909114176111385761111b8633610be6565b61113857604051632ce44b5f60e11b815260040160405180910390fd5b6001600160a01b03851661115f57604051633a954ecd60e21b815260040160405180910390fd5b801561116a57600082555b6001600160a01b038681166000908152600560205260408082208054600019019055918716808252919020805460010190554260a01b17600160e11b17600085815260046020526040812091909155600160e11b841690036111fc576001840160008181526004602052604081205490036111fa5760005481146111fa5760008181526004602052604090208490555b505b83856001600160a01b0316876001600160a01b03167fddf252ad1be2c89b69c2b068fc378daa952ba7f163c4a11628f55a4df523b3ef60405160405180910390a4505050505050565b6000828152600f602052604090206001015461126081611e00565b61126a8383611ff7565b505050565b6001600160a01b03811633146112df5760405162461bcd60e51b815260206004820152602f60248201527f416363657373436f6e74726f6c3a2063616e206f6e6c792072656e6f756e636560448201526e103937b632b9903337b91039b2b63360891b6064820152608401610ea6565b6110a98282612019565b61126a83838360405180602001604052806000815250611868565b6001600160a01b0381166000908152600a60205260409020546113395760405162461bcd60e51b8152600401610ea690612f20565b600061134583836118b2565b9050806000036113675760405162461bcd60e51b8152600401610ea690612f66565b6001600160a01b0383166000908152600d60205260408120805483929061138f908490612fc7565b90915550506001600160a01b038084166000908152600e602090815260408083209386168352929052208054820190556113ca83838361203b565b604080516001600160a01b038481168252602082018490528516917f3be5b7a71e84ed12875d241991c70855ac5817d847039e17a9d895c1ceb0f18a910160405180910390a2505050565b600061142081611e00565b50601555565b600061143181611e00565b60145460ff16156114775760405162461bcd60e51b815260206004820152601060248201526f105b1c9958591e481c995d99585b195960821b6044820152606401610ea6565b815161126a906013906020850190612996565b6000610c9b82611f90565b60006001600160a01b0382166114be576040516323d3ad8160e21b815260040160405180910390fd5b506001600160a01b03166000908152600560205260409020546001600160401b031690565b60006114ee81611e00565b506016805461ffff909216600160601b0261ffff60601b19909216919091179055565b6000600c828154811061152657611526612fdf565b6000918252602090912001546001600160a01b031692915050565b600061154d8180611552565b905090565b600082815260106020526040812061156a908361208d565b9392505050565b6000918252600f602090815260408084206001600160a01b0393909316845291905290205460ff1690565b60145462010000900460ff16156115e95760405162461bcd60e51b8152602060048201526011602482015270135a5b9d1a5b99c81a5cc81b1bd8dad959607a1b6044820152606401610ea6565b601454610100900460ff166116355760405162461bcd60e51b815260206004820152601260248201527153616c65206973206e6f742061637469766560701b6044820152606401610ea6565b6011546001600160a01b0382166000908152600560205260409081902054611667911c6001600160401b031684612fc7565b11156116ae5760405162461bcd60e51b8152602060048201526016602482015275115e18d959591cc81b585e081c195c881dd85b1b195d60521b6044820152606401610ea6565b816012546116bc9190612ff5565b34146116fd5760405162461bcd60e51b815260206004820152601060248201526f2737ba1032b737bab3b41032ba3432b960811b6044820152606401610ea6565b611b3961170d6001546000540390565b6117179084612fc7565b111561175a5760405162461bcd60e51b815260206004820152601260248201527145786365656473206d617820737570706c7960701b6044820152606401610ea6565b6110a98183611e0d565b606060038054610cb090612ee6565b3360008181526007602090815260408083206001600160a01b03871680855290835292819020805460ff191686151590811790915590519081529192917f17307eab39ab6107e8899845ad3d59bd9653f200f220920489ca2b5937696c31910160405180910390a35050565b6000806117eb60095490565b6117f59047612fc7565b905061156a838261181b866001600160a01b03166000908152600b602052604090205490565b612099565b600061182b81611e00565b506016805463ffffffff909216600160401b026bffffffff000000000000000019909216919091179055565b600061186281611e00565b50601155565b6118738484846110ad565b6001600160a01b0383163b156118ac5761188f848484846120d7565b6118ac576040516368d2bf6b60e11b815260040160405180910390fd5b50505050565b6001600160a01b0382166000908152600d602052604081205481906040516370a0823160e01b81523060048201526001600160a01b038616906370a0823190602401602060405180830381865afa158015611911573d6000803e3d6000fd5b505050506040513d601f19601f820116820180604052508101906119359190613014565b61193f9190612fc7565b6001600160a01b038086166000908152600e60209081526040808320938816835292905220549091506119759084908390612099565b949350505050565b606061198882611dd9565b6119a557604051630a14c4b560e41b815260040160405180910390fd5b60006119af6121c2565b905080516000036119cf576040518060200160405280600081525061156a565b806119d9846121d1565b6040516020016119ea92919061302d565b6040516020818303038152906040529392505050565b6000818152601060205260408120610c9b90612209565b6000611a2281611e00565b6014546301000000900460ff16611a715760405162461bcd60e51b81526020600482015260136024820152725072656d696e74206265666f72652073616c6560681b6044820152606401610ea6565b50601480549115156101000261ff0019909216919091179055565b6000828152600f6020526040902060010154611aa781611e00565b61126a8383612019565b6000611abc81611e00565b60145460ff1615611b025760405162461bcd60e51b815260206004820152601060248201526f105b1c9958591e481c995d99585b195960821b6044820152606401610ea6565b506014805460ff1916911515919091179055565b6000611b2181611e00565b60185415611b715760405162461bcd60e51b815260206004820152601860248201527f546f6b656e206f666673657420616c72656164792073657400000000000000006044820152606401610ea6565b6014546015546016546040516305d3b1d360e41b815260048101929092526001600160401b0381166024830152600160601b810461ffff166044830152600160401b900463ffffffff166064820152600260848201526401000000009091046001600160a01b031690635d3b1d309060a4016020604051808303816000875af1158015611c02573d6000803e3d6000fd5b505050506040513d601f19601f82011682018060405250810190611c269190613014565b60175550565b60138054611c3990612ee6565b80601f0160208091040260200160405190810160405280929190818152602001828054611c6590612ee6565b8015611cb25780601f10611c8757610100808354040283529160200191611cb2565b820191906000526020600020905b815481529060010190602001808311611c9557829003601f168201915b505050505081565b6000611cc581611e00565b50601255565b611cd58282611571565b6110a9576000828152600f602090815260408083206001600160a01b03851684529091529020805460ff19166001179055611d0d3390565b6001600160a01b0316816001600160a01b0316837f2f8788117e7eff1d82e926ec794901d17c78024a50270940304540a733656f0d60405160405180910390a45050565b600061156a836001600160a01b038416612213565b60006301ffc9a760e01b6001600160e01b031983161480611d9757506380ac58cd60e01b6001600160e01b03198316145b80610c9b5750506001600160e01b031916635b5e139f60e01b1490565b60006001600160e01b03198216635a05180f60e01b1480610c9b5750610c9b82612262565b6000805482108015610c9b575050600090815260046020526040902054600160e01b161590565b611e0a8133612297565b50565b6110a98282604051806020016040528060008152506122f0565b80471015611e775760405162461bcd60e51b815260206004820152601d60248201527f416464726573733a20696e73756666696369656e742062616c616e63650000006044820152606401610ea6565b6000826001600160a01b03168260405160006040518083038185875af1925050503d8060008114611ec4576040519150601f19603f3d011682016040523d82523d6000602084013e611ec9565b606091505b505090508061126a5760405162461bcd60e51b815260206004820152603a60248201527f416464726573733a20756e61626c6520746f2073656e642076616c75652c207260448201527f6563697069656e74206d617920686176652072657665727465640000000000006064820152608401610ea6565b80600081518110611f5357611f53612fdf565b60200260200101516018819055506018546000036110a95780600181518110611f7e57611f7e612fdf565b60200260200101516018819055505050565b600081600054811015611fde5760008181526004602052604081205490600160e01b82169003611fdc575b8060000361156a575060001901600081815260046020526040902054611fbb565b505b604051636f96cda160e11b815260040160405180910390fd5b6120018282611ccb565b600082815260106020526040902061126a9082611d51565b612023828261235d565b600082815260106020526040902061126a90826123c4565b604080516001600160a01b038416602482015260448082018490528251808303909101815260649091019091526020810180516001600160e01b031663a9059cbb60e01b17905261126a9084906123d9565b600061156a83836124ab565b6008546001600160a01b0384166000908152600a6020526040812054909183916120c39086612ff5565b6120cd919061305c565b611975919061307e565b604051630a85bd0160e11b81526000906001600160a01b0385169063150b7a029061210c903390899088908890600401613095565b6020604051808303816000875af1925050508015612147575060408051601f3d908101601f19168201909252612144918101906130d2565b60015b6121a5573d808015612175576040519150601f19603f3d011682016040523d82523d6000602084013e61217a565b606091505b50805160000361219d576040516368d2bf6b60e11b815260040160405180910390fd5b805181602001fd5b6001600160e01b031916630a85bd0160e11b149050949350505050565b606060138054610cb090612ee6565b604080516080019081905280825b600183039250600a81066030018353600a9004806121df5750819003601f19909101908152919050565b6000610c9b825490565b600081815260018301602052604081205461225a57508154600181810184556000848152602080822090930184905584548482528286019093526040902091909155610c9b565b506000610c9b565b60006001600160e01b03198216637965db0b60e01b1480610c9b57506301ffc9a760e01b6001600160e01b0319831614610c9b565b6122a18282611571565b6110a9576122ae816124d5565b6122b98360206124e7565b6040516020016122ca9291906130ef565b60408051601f198184030181529082905262461bcd60e51b8252610ea691600401612aba565b6122fa8383612682565b6001600160a01b0383163b1561126a576000548281035b61232460008683806001019450866120d7565b612341576040516368d2bf6b60e11b815260040160405180910390fd5b81811061231157816000541461235657600080fd5b5050505050565b6123678282611571565b156110a9576000828152600f602090815260408083206001600160a01b0385168085529252808320805460ff1916905551339285917ff6391f5c32d9c69d2a47ea670b442974b53935d1edc7fd64eb21e047a839171b9190a45050565b600061156a836001600160a01b038416612780565b600061242e826040518060400160405280602081526020017f5361666545524332303a206c6f772d6c6576656c2063616c6c206661696c6564815250856001600160a01b03166128739092919063ffffffff16565b80519091501561126a578080602001905181019061244c9190613164565b61126a5760405162461bcd60e51b815260206004820152602a60248201527f5361666545524332303a204552433230206f7065726174696f6e20646964206e6044820152691bdd081cdd58d8d9595960b21b6064820152608401610ea6565b60008260000182815481106124c2576124c2612fdf565b9060005260206000200154905092915050565b6060610c9b6001600160a01b03831660145b606060006124f6836002612ff5565b612501906002612fc7565b6001600160401b0381111561251857612518612b6d565b6040519080825280601f01601f191660200182016040528015612542576020820181803683370190505b509050600360fc1b8160008151811061255d5761255d612fdf565b60200101906001600160f81b031916908160001a905350600f60fb1b8160018151811061258c5761258c612fdf565b60200101906001600160f81b031916908160001a90535060006125b0846002612ff5565b6125bb906001612fc7565b90505b6001811115612633576f181899199a1a9b1b9c1cb0b131b232b360811b85600f16601081106125ef576125ef612fdf565b1a60f81b82828151811061260557612605612fdf565b60200101906001600160f81b031916908160001a90535060049490941c9361262c81613181565b90506125be565b50831561156a5760405162461bcd60e51b815260206004820181905260248201527f537472696e67733a20686578206c656e67746820696e73756666696369656e746044820152606401610ea6565b60008054908290036126a75760405163b562e8dd60e01b815260040160405180910390fd5b6001600160a01b03831660008181526005602090815260408083208054680100000000000000018802019055848352600490915281206001851460e11b4260a01b178317905582840190839083907fddf252ad1be2c89b69c2b068fc378daa952ba7f163c4a11628f55a4df523b3ef8180a4600183015b81811461275657808360007fddf252ad1be2c89b69c2b068fc378daa952ba7f163c4a11628f55a4df523b3ef600080a460010161271e565b508160000361277757604051622e076360e81b815260040160405180910390fd5b60005550505050565b600081815260018301602052604081205480156128695760006127a460018361307e565b85549091506000906127b89060019061307e565b905081811461281d5760008660000182815481106127d8576127d8612fdf565b90600052602060002001549050808760000184815481106127fb576127fb612fdf565b6000918252602080832090910192909255918252600188019052604090208390555b855486908061282e5761282e613198565b600190038181906000526020600020016000905590558560010160008681526020019081526020016000206000905560019350505050610c9b565b6000915050610c9b565b6060611975848460008585600080866001600160a01b0316858760405161289a91906131ae565b60006040518083038185875af1925050503d80600081146128d7576040519150601f19603f3d011682016040523d82523d6000602084013e6128dc565b606091505b50915091506128ed878383876128f8565b979650505050505050565b60608315612967578251600003612960576001600160a01b0385163b6129605760405162461bcd60e51b815260206004820152601d60248201527f416464726573733a2063616c6c20746f206e6f6e2d636f6e74726163740000006044820152606401610ea6565b5081611975565b611975838381511561297c5781518083602001fd5b8060405162461bcd60e51b8152600401610ea69190612aba565b8280546129a290612ee6565b90600052602060002090601f0160209004810192826129c45760008555612a0a565b82601f106129dd57805160ff1916838001178555612a0a565b82800160010185558215612a0a579182015b82811115612a0a5782518255916020019190600101906129ef565b50612a16929150612a1a565b5090565b5b80821115612a165760008155600101612a1b565b6001600160e01b031981168114611e0a57600080fd5b600060208284031215612a5757600080fd5b813561156a81612a2f565b60005b83811015612a7d578181015183820152602001612a65565b838111156118ac5750506000910152565b60008151808452612aa6816020860160208601612a62565b601f01601f19169290920160200192915050565b60208152600061156a6020830184612a8e565b600060208284031215612adf57600080fd5b5035919050565b6001600160a01b0381168114611e0a57600080fd5b60008060408385031215612b0e57600080fd5b8235612b1981612ae6565b946020939093013593505050565b600060208284031215612b3957600080fd5b81356001600160401b038116811461156a57600080fd5b600060208284031215612b6257600080fd5b813561156a81612ae6565b634e487b7160e01b600052604160045260246000fd5b604051601f8201601f191681016001600160401b0381118282101715612bab57612bab612b6d565b604052919050565b60008060408385031215612bc657600080fd5b823591506020808401356001600160401b0380821115612be557600080fd5b818601915086601f830112612bf957600080fd5b813581811115612c0b57612c0b612b6d565b8060051b9150612c1c848301612b83565b8181529183018401918481019089841115612c3657600080fd5b938501935b83851015612c5457843582529385019390850190612c3b565b8096505050505050509250929050565b600080600060608486031215612c7957600080fd5b8335612c8481612ae6565b92506020840135612c9481612ae6565b929592945050506040919091013590565b60008060408385031215612cb857600080fd5b823591506020830135612cca81612ae6565b809150509250929050565b60008060408385031215612ce857600080fd5b8235612cf381612ae6565b91506020830135612cca81612ae6565b60006001600160401b03831115612d1c57612d1c612b6d565b612d2f601f8401601f1916602001612b83565b9050828152838383011115612d4357600080fd5b828260208301376000602084830101529392505050565b600060208284031215612d6c57600080fd5b81356001600160401b03811115612d8257600080fd5b8201601f81018413612d9357600080fd5b61197584823560208401612d03565b600060208284031215612db457600080fd5b813561ffff8116811461156a57600080fd5b60008060408385031215612dd957600080fd5b50508035926020909101359150565b8015158114611e0a57600080fd5b60008060408385031215612e0957600080fd5b8235612e1481612ae6565b91506020830135612cca81612de8565b600060208284031215612e3657600080fd5b813563ffffffff8116811461156a57600080fd5b60008060008060808587031215612e6057600080fd5b8435612e6b81612ae6565b93506020850135612e7b81612ae6565b92506040850135915060608501356001600160401b03811115612e9d57600080fd5b8501601f81018713612eae57600080fd5b612ebd87823560208401612d03565b91505092959194509250565b600060208284031215612edb57600080fd5b813561156a81612de8565b600181811c90821680612efa57607f821691505b602082108103612f1a57634e487b7160e01b600052602260045260246000fd5b50919050565b60208082526026908201527f5061796d656e7453706c69747465723a206163636f756e7420686173206e6f2060408201526573686172657360d01b606082015260800190565b6020808252602b908201527f5061796d656e7453706c69747465723a206163636f756e74206973206e6f742060408201526a191d59481c185e5b595b9d60aa1b606082015260800190565b634e487b7160e01b600052601160045260246000fd5b60008219821115612fda57612fda612fb1565b500190565b634e487b7160e01b600052603260045260246000fd5b600081600019048311821515161561300f5761300f612fb1565b500290565b60006020828403121561302657600080fd5b5051919050565b6000835161303f818460208801612a62565b835190830190613053818360208801612a62565b01949350505050565b60008261307957634e487b7160e01b600052601260045260246000fd5b500490565b60008282101561309057613090612fb1565b500390565b6001600160a01b03858116825284166020820152604081018390526080606082018190526000906130c890830184612a8e565b9695505050505050565b6000602082840312156130e457600080fd5b815161156a81612a2f565b7f416363657373436f6e74726f6c3a206163636f756e7420000000000000000000815260008351613127816017850160208801612a62565b7001034b99036b4b9b9b4b733903937b6329607d1b6017918401918201528351613158816028840160208801612a62565b01602801949350505050565b60006020828403121561317657600080fd5b815161156a81612de8565b60008161319057613190612fb1565b506000190190565b634e487b7160e01b600052603160045260246000fd5b600082516131c0818460208701612a62565b919091019291505056fea26469706673582212205c8ea810a68ac5d90c4378c0e1b7e8758bfa8123a9bbe49b60078468f840439f64736f6c634300080d0033",
    "linkReferences": {}
  },
  "methodIdentifiers": {
    "DEFAULT_ADMIN_ROLE()": "a217fddf",
    "MAX_SUPPLY()": "32cb6b0c",
    "PROVENANCE_HASH()": "ff1b6556",
    "RESERVE()": "9d2cc436",
    "approve(address,uint256)": "095ea7b3",
    "balanceOf(address)": "70a08231",
    "baseURI_()": "f259a29e",
    "callbackGasLimit()": "24f74697",
    "gasLaneKeyHash()": "a81488bd",
    "generateTokenOffset()": "ee077625",
    "getApproved(uint256)": "081812fc",
    "getRoleAdmin(bytes32)": "248a9ca3",
    "getRoleMember(bytes32,uint256)": "9010d07c",
    "getRoleMemberCount(bytes32)": "ca15c873",
    "grantRole(bytes32,address)": "2f2ff15d",
    "hasRole(bytes32,address)": "91d14854",
    "isApprovedForAll(address,address)": "e985e9c5",
    "isSaleActive()": "564566a8",
    "linkSubscriptionId()": "5a3d84b4",
    "lockMinting()": "0d7982ad",
    "maxPerWallet()": "453c2310",
    "mint(uint256,address)": "94bf804d",
    "mintPrice()": "6817c76c",
    "mintingLocked()": "0fc50ebb",
    "name()": "06fdde03",
    "owner()": "8da5cb5b",
    "ownerOf(uint256)": "6352211e",
    "payee(uint256)": "8b83209b",
    "premint(address)": "14037068",
    "preminted()": "357b794e",
    "randomRequestId()": "8d323a8b",
    "rawFulfillRandomWords(uint256,uint256[])": "1fe543e3",
    "releasable(address)": "a3f8eace",
    "releasable(address,address)": "c45ac050",
    "release(address)": "19165587",
    "release(address,address)": "48b75044",
    "released(address)": "9852595c",
    "released(address,address)": "406072a9",
    "renounceRole(bytes32,address)": "36568abe",
    "requestConfirmations()": "b0fb162f",
    "revealed()": "51830227",
    "revokeRole(bytes32,address)": "d547741f",
    "safeTransferFrom(address,address,uint256)": "42842e0e",
    "safeTransferFrom(address,address,uint256,bytes)": "b88d4fde",
    "setApprovalForAll(address,bool)": "a22cb465",
    "setBaseURI(string)": "55f804b3",
    "setCallbackGasLimit(uint32)": "a4eb718c",
    "setGasLaneKeyHash(bytes32)": "4ab5927e",
    "setIsSaleActive(bool)": "d2d65ff5",
    "setLinkSubscriptionId(uint64)": "0bf5c67f",
    "setMaxMintPerWallet(uint256)": "afdf6134",
    "setMintPrice(uint256)": "f4a0a528",
    "setRequestConfirmations(uint16)": "8824f5a7",
    "setRevealed(bool)": "e0a80853",
    "shares(address)": "ce7c2ac2",
    "supportsInterface(bytes4)": "01ffc9a7",
    "symbol()": "95d89b41",
    "tokenOffset()": "dc8c57b4",
    "tokenURI(uint256)": "c87b56dd",
    "totalReleased()": "e33b7de3",
    "totalReleased(address)": "d79779b2",
    "totalShares()": "3a98ef39",
    "totalSupply()": "18160ddd",
    "transferFrom(address,address,uint256)": "23b872dd"
  },
  "id": 28
}