{
  "abi": [
    {
      "inputs": [
        {
          "internalType": "address",
          "name": "_admin",
          "type": "address"
        },
        {
          "internalType": "address[]",
          "name": "payees",
          "type": "address[]"
        },
        {
          "internalType": "uint256[]",
          "name": "shares",
          "type": "uint256[]"
        }
      ],
      "stateMutability": "nonpayable",
      "type": "constructor"
    },
    {
      "inputs": [],
      "name": "ApprovalCallerNotOwnerNorApproved",
      "type": "error"
    },
    {
      "inputs": [],
      "name": "ApprovalQueryForNonexistentToken",
      "type": "error"
    },
    {
      "inputs": [],
      "name": "ApproveToCaller",
      "type": "error"
    },
    {
      "inputs": [],
      "name": "BalanceQueryForZeroAddress",
      "type": "error"
    },
    {
      "inputs": [],
      "name": "MintERC2309QuantityExceedsLimit",
      "type": "error"
    },
    {
      "inputs": [],
      "name": "MintToZeroAddress",
      "type": "error"
    },
    {
      "inputs": [],
      "name": "MintZeroQuantity",
      "type": "error"
    },
    {
      "inputs": [
        {
          "internalType": "address",
          "name": "have",
          "type": "address"
        },
        {
          "internalType": "address",
          "name": "want",
          "type": "address"
        }
      ],
      "name": "OnlyCoordinatorCanFulfill",
      "type": "error"
    },
    {
      "inputs": [],
      "name": "OwnerQueryForNonexistentToken",
      "type": "error"
    },
    {
      "inputs": [],
      "name": "OwnershipNotInitializedForExtraData",
      "type": "error"
    },
    {
      "inputs": [],
      "name": "TransferCallerNotOwnerNorApproved",
      "type": "error"
    },
    {
      "inputs": [],
      "name": "TransferFromIncorrectOwner",
      "type": "error"
    },
    {
      "inputs": [],
      "name": "TransferToNonERC721ReceiverImplementer",
      "type": "error"
    },
    {
      "inputs": [],
      "name": "TransferToZeroAddress",
      "type": "error"
    },
    {
      "inputs": [],
      "name": "URIQueryForNonexistentToken",
      "type": "error"
    },
    {
      "anonymous": false,
      "inputs": [
        {
          "indexed": true,
          "internalType": "address",
          "name": "owner",
          "type": "address"
        },
        {
          "indexed": true,
          "internalType": "address",
          "name": "approved",
          "type": "address"
        },
        {
          "indexed": true,
          "internalType": "uint256",
          "name": "tokenId",
          "type": "uint256"
        }
      ],
      "name": "Approval",
      "type": "event"
    },
    {
      "anonymous": false,
      "inputs": [
        {
          "indexed": true,
          "internalType": "address",
          "name": "owner",
          "type": "address"
        },
        {
          "indexed": true,
          "internalType": "address",
          "name": "operator",
          "type": "address"
        },
        {
          "indexed": false,
          "internalType": "bool",
          "name": "approved",
          "type": "bool"
        }
      ],
      "name": "ApprovalForAll",
      "type": "event"
    },
    {
      "anonymous": false,
      "inputs": [
        {
          "indexed": true,
          "internalType": "uint256",
          "name": "fromTokenId",
          "type": "uint256"
        },
        {
          "indexed": false,
          "internalType": "uint256",
          "name": "toTokenId",
          "type": "uint256"
        },
        {
          "indexed": true,
          "internalType": "address",
          "name": "from",
          "type": "address"
        },
        {
          "indexed": true,
          "internalType": "address",
          "name": "to",
          "type": "address"
        }
      ],
      "name": "ConsecutiveTransfer",
      "type": "event"
    },
    {
      "anonymous": false,
      "inputs": [
        {
          "indexed": true,
          "internalType": "contract IERC20",
          "name": "token",
          "type": "address"
        },
        {
          "indexed": false,
          "internalType": "address",
          "name": "to",
          "type": "address"
        },
        {
          "indexed": false,
          "internalType": "uint256",
          "name": "amount",
          "type": "uint256"
        }
      ],
      "name": "ERC20PaymentReleased",
      "type": "event"
    },
    {
      "anonymous": false,
      "inputs": [
        {
          "indexed": false,
          "internalType": "address",
          "name": "account",
          "type": "address"
        },
        {
          "indexed": false,
          "internalType": "uint256",
          "name": "shares",
          "type": "uint256"
        }
      ],
      "name": "PayeeAdded",
      "type": "event"
    },
    {
      "anonymous": false,
      "inputs": [
        {
          "indexed": false,
          "internalType": "address",
          "name": "from",
          "type": "address"
        },
        {
          "indexed": false,
          "internalType": "uint256",
          "name": "amount",
          "type": "uint256"
        }
      ],
      "name": "PaymentReceived",
      "type": "event"
    },
    {
      "anonymous": false,
      "inputs": [
        {
          "indexed": false,
          "internalType": "address",
          "name": "to",
          "type": "address"
        },
        {
          "indexed": false,
          "internalType": "uint256",
          "name": "amount",
          "type": "uint256"
        }
      ],
      "name": "PaymentReleased",
      "type": "event"
    },
    {
      "anonymous": false,
      "inputs": [
        {
          "indexed": true,
          "internalType": "bytes32",
          "name": "role",
          "type": "bytes32"
        },
        {
          "indexed": true,
          "internalType": "bytes32",
          "name": "previousAdminRole",
          "type": "bytes32"
        },
        {
          "indexed": true,
          "internalType": "bytes32",
          "name": "newAdminRole",
          "type": "bytes32"
        }
      ],
      "name": "RoleAdminChanged",
      "type": "event"
    },
    {
      "anonymous": false,
      "inputs": [
        {
          "indexed": true,
          "internalType": "bytes32",
          "name": "role",
          "type": "bytes32"
        },
        {
          "indexed": true,
          "internalType": "address",
          "name": "account",
          "type": "address"
        },
        {
          "indexed": true,
          "internalType": "address",
          "name": "sender",
          "type": "address"
        }
      ],
      "name": "RoleGranted",
      "type": "event"
    },
    {
      "anonymous": false,
      "inputs": [
        {
          "indexed": true,
          "internalType": "bytes32",
          "name": "role",
          "type": "bytes32"
        },
        {
          "indexed": true,
          "internalType": "address",
          "name": "account",
          "type": "address"
        },
        {
          "indexed": true,
          "internalType": "address",
          "name": "sender",
          "type": "address"
        }
      ],
      "name": "RoleRevoked",
      "type": "event"
    },
    {
      "anonymous": false,
      "inputs": [
        {
          "indexed": true,
          "internalType": "address",
          "name": "from",
          "type": "address"
        },
        {
          "indexed": true,
          "internalType": "address",
          "name": "to",
          "type": "address"
        },
        {
          "indexed": true,
          "internalType": "uint256",
          "name": "tokenId",
          "type": "uint256"
        }
      ],
      "name": "Transfer",
      "type": "event"
    },
    {
      "inputs": [],
      "name": "DEFAULT_ADMIN_ROLE",
      "outputs": [
        {
          "internalType": "bytes32",
          "name": "",
          "type": "bytes32"
        }
      ],
      "stateMutability": "view",
      "type": "function"
    },
    {
      "inputs": [],
      "name": "MAX_SUPPLY",
      "outputs": [
        {
          "internalType": "uint256",
          "name": "",
          "type": "uint256"
        }
      ],
      "stateMutability": "view",
      "type": "function"
    },
    {
      "inputs": [],
      "name": "PROVENANCE_HASH",
      "outputs": [
        {
          "internalType": "string",
          "name": "",
          "type": "string"
        }
      ],
      "stateMutability": "view",
      "type": "function"
    },
    {
      "inputs": [],
      "name": "RESERVE",
      "outputs": [
        {
          "internalType": "uint256",
          "name": "",
          "type": "uint256"
        }
      ],
      "stateMutability": "view",
      "type": "function"
    },
    {
      "inputs": [
        {
          "internalType": "address",
          "name": "to",
          "type": "address"
        },
        {
          "internalType": "uint256",
          "name": "tokenId",
          "type": "uint256"
        }
      ],
      "name": "approve",
      "outputs": [],
      "stateMutability": "nonpayable",
      "type": "function"
    },
    {
      "inputs": [
        {
          "internalType": "address",
          "name": "owner",
          "type": "address"
        }
      ],
      "name": "balanceOf",
      "outputs": [
        {
          "internalType": "uint256",
          "name": "",
          "type": "uint256"
        }
      ],
      "stateMutability": "view",
      "type": "function"
    },
    {
      "inputs": [],
      "name": "baseURI_",
      "outputs": [
        {
          "internalType": "string",
          "name": "",
          "type": "string"
        }
      ],
      "stateMutability": "view",
      "type": "function"
    },
    {
      "inputs": [],
      "name": "callbackGasLimit",
      "outputs": [
        {
          "internalType": "uint32",
          "name": "",
          "type": "uint32"
        }
      ],
      "stateMutability": "view",
      "type": "function"
    },
    {
      "inputs": [],
      "name": "gasLaneKeyHash",
      "outputs": [
        {
          "internalType": "bytes32",
          "name": "",
          "type": "bytes32"
        }
      ],
      "stateMutability": "view",
      "type": "function"
    },
    {
      "inputs": [],
      "name": "generateTokenOffset",
      "outputs": [],
      "stateMutability": "nonpayable",
      "type": "function"
    },
    {
      "inputs": [
        {
          "internalType": "uint256",
          "name": "tokenId",
          "type": "uint256"
        }
      ],
      "name": "getApproved",
      "outputs": [
        {
          "internalType": "address",
          "name": "",
          "type": "address"
        }
      ],
      "stateMutability": "view",
      "type": "function"
    },
    {
      "inputs": [
        {
          "internalType": "bytes32",
          "name": "role",
          "type": "bytes32"
        }
      ],
      "name": "getRoleAdmin",
      "outputs": [
        {
          "internalType": "bytes32",
          "name": "",
          "type": "bytes32"
        }
      ],
      "stateMutability": "view",
      "type": "function"
    },
    {
      "inputs": [
        {
          "internalType": "bytes32",
          "name": "role",
          "type": "bytes32"
        },
        {
          "internalType": "uint256",
          "name": "index",
          "type": "uint256"
        }
      ],
      "name": "getRoleMember",
      "outputs": [
        {
          "internalType": "address",
          "name": "",
          "type": "address"
        }
      ],
      "stateMutability": "view",
      "type": "function"
    },
    {
      "inputs": [
        {
          "internalType": "bytes32",
          "name": "role",
          "type": "bytes32"
        }
      ],
      "name": "getRoleMemberCount",
      "outputs": [
        {
          "internalType": "uint256",
          "name": "",
          "type": "uint256"
        }
      ],
      "stateMutability": "view",
      "type": "function"
    },
    {
      "inputs": [
        {
          "internalType": "bytes32",
          "name": "role",
          "type": "bytes32"
        },
        {
          "internalType": "address",
          "name": "account",
          "type": "address"
        }
      ],
      "name": "grantRole",
      "outputs": [],
      "stateMutability": "nonpayable",
      "type": "function"
    },
    {
      "inputs": [
        {
          "internalType": "bytes32",
          "name": "role",
          "type": "bytes32"
        },
        {
          "internalType": "address",
          "name": "account",
          "type": "address"
        }
      ],
      "name": "hasRole",
      "outputs": [
        {
          "internalType": "bool",
          "name": "",
          "type": "bool"
        }
      ],
      "stateMutability": "view",
      "type": "function"
    },
    {
      "inputs": [
        {
          "internalType": "address",
          "name": "owner",
          "type": "address"
        },
        {
          "internalType": "address",
          "name": "operator",
          "type": "address"
        }
      ],
      "name": "isApprovedForAll",
      "outputs": [
        {
          "internalType": "bool",
          "name": "",
          "type": "bool"
        }
      ],
      "stateMutability": "view",
      "type": "function"
    },
    {
      "inputs": [],
      "name": "isSaleActive",
      "outputs": [
        {
          "internalType": "bool",
          "name": "",
          "type": "bool"
        }
      ],
      "stateMutability": "view",
      "type": "function"
    },
    {
      "inputs": [],
      "name": "linkSubscriptionId",
      "outputs": [
        {
          "internalType": "uint64",
          "name": "",
          "type": "uint64"
        }
      ],
      "stateMutability": "view",
      "type": "function"
    },
    {
      "inputs": [],
      "name": "lockMinting",
      "outputs": [],
      "stateMutability": "nonpayable",
      "type": "function"
    },
    {
      "inputs": [],
      "name": "maxPerWallet",
      "outputs": [
        {
          "internalType": "uint256",
          "name": "",
          "type": "uint256"
        }
      ],
      "stateMutability": "view",
      "type": "function"
    },
    {
      "inputs": [
        {
          "internalType": "uint256",
          "name": "_amount",
          "type": "uint256"
        },
        {
          "internalType": "address",
          "name": "_to",
          "type": "address"
        }
      ],
      "name": "mint",
      "outputs": [],
      "stateMutability": "payable",
      "type": "function"
    },
    {
      "inputs": [],
      "name": "mintPrice",
      "outputs": [
        {
          "internalType": "uint256",
          "name": "",
          "type": "uint256"
        }
      ],
      "stateMutability": "view",
      "type": "function"
    },
    {
      "inputs": [],
      "name": "mintingLocked",
      "outputs": [
        {
          "internalType": "bool",
          "name": "",
          "type": "bool"
        }
      ],
      "stateMutability": "view",
      "type": "function"
    },
    {
      "inputs": [],
      "name": "name",
      "outputs": [
        {
          "internalType": "string",
          "name": "",
          "type": "string"
        }
      ],
      "stateMutability": "view",
      "type": "function"
    },
    {
      "inputs": [],
      "name": "owner",
      "outputs": [
        {
          "internalType": "address",
          "name": "",
          "type": "address"
        }
      ],
      "stateMutability": "view",
      "type": "function"
    },
    {
      "inputs": [
        {
          "internalType": "uint256",
          "name": "tokenId",
          "type": "uint256"
        }
      ],
      "name": "ownerOf",
      "outputs": [
        {
          "internalType": "address",
          "name": "",
          "type": "address"
        }
      ],
      "stateMutability": "view",
      "type": "function"
    },
    {
      "inputs": [
        {
          "internalType": "uint256",
          "name": "index",
          "type": "uint256"
        }
      ],
      "name": "payee",
      "outputs": [
        {
          "internalType": "address",
          "name": "",
          "type": "address"
        }
      ],
      "stateMutability": "view",
      "type": "function"
    },
    {
      "inputs": [
        {
          "internalType": "address",
          "name": "_to",
          "type": "address"
        }
      ],
      "name": "premint",
      "outputs": [],
      "stateMutability": "nonpayable",
      "type": "function"
    },
    {
      "inputs": [],
      "name": "preminted",
      "outputs": [
        {
          "internalType": "bool",
          "name": "",
          "type": "bool"
        }
      ],
      "stateMutability": "view",
      "type": "function"
    },
    {
      "inputs": [],
      "name": "randomRequestId",
      "outputs": [
        {
          "internalType": "uint256",
          "name": "",
          "type": "uint256"
        }
      ],
      "stateMutability": "view",
      "type": "function"
    },
    {
      "inputs": [
        {
          "internalType": "uint256",
          "name": "requestId",
          "type": "uint256"
        },
        {
          "internalType": "uint256[]",
          "name": "randomWords",
          "type": "uint256[]"
        }
      ],
      "name": "rawFulfillRandomWords",
      "outputs": [],
      "stateMutability": "nonpayable",
      "type": "function"
    },
    {
      "inputs": [
        {
          "internalType": "address",
          "name": "account",
          "type": "address"
        }
      ],
      "name": "releasable",
      "outputs": [
        {
          "internalType": "uint256",
          "name": "",
          "type": "uint256"
        }
      ],
      "stateMutability": "view",
      "type": "function"
    },
    {
      "inputs": [
        {
          "internalType": "contract IERC20",
          "name": "token",
          "type": "address"
        },
        {
          "internalType": "address",
          "name": "account",
          "type": "address"
        }
      ],
      "name": "releasable",
      "outputs": [
        {
          "internalType": "uint256",
          "name": "",
          "type": "uint256"
        }
      ],
      "stateMutability": "view",
      "type": "function"
    },
    {
      "inputs": [
        {
          "internalType": "address payable",
          "name": "account",
          "type": "address"
        }
      ],
      "name": "release",
      "outputs": [],
      "stateMutability": "nonpayable",
      "type": "function"
    },
    {
      "inputs": [
        {
          "internalType": "contract IERC20",
          "name": "token",
          "type": "address"
        },
        {
          "internalType": "address",
          "name": "account",
          "type": "address"
        }
      ],
      "name": "release",
      "outputs": [],
      "stateMutability": "nonpayable",
      "type": "function"
    },
    {
      "inputs": [
        {
          "internalType": "contract IERC20",
          "name": "token",
          "type": "address"
        },
        {
          "internalType": "address",
          "name": "account",
          "type": "address"
        }
      ],
      "name": "released",
      "outputs": [
        {
          "internalType": "uint256",
          "name": "",
          "type": "uint256"
        }
      ],
      "stateMutability": "view",
      "type": "function"
    },
    {
      "inputs": [
        {
          "internalType": "address",
          "name": "account",
          "type": "address"
        }
      ],
      "name": "released",
      "outputs": [
        {
          "internalType": "uint256",
          "name": "",
          "type": "uint256"
        }
      ],
      "stateMutability": "view",
      "type": "function"
    },
    {
      "inputs": [
        {
          "internalType": "bytes32",
          "name": "role",
          "type": "bytes32"
        },
        {
          "internalType": "address",
          "name": "account",
          "type": "address"
        }
      ],
      "name": "renounceRole",
      "outputs": [],
      "stateMutability": "nonpayable",
      "type": "function"
    },
    {
      "inputs": [],
      "name": "requestConfirmations",
      "outputs": [
        {
          "internalType": "uint16",
          "name": "",
          "type": "uint16"
        }
      ],
      "stateMutability": "view",
      "type": "function"
    },
    {
      "inputs": [],
      "name": "revealed",
      "outputs": [
        {
          "internalType": "bool",
          "name": "",
          "type": "bool"
        }
      ],
      "stateMutability": "view",
      "type": "function"
    },
    {
      "inputs": [
        {
          "internalType": "bytes32",
          "name": "role",
          "type": "bytes32"
        },
        {
          "internalType": "address",
          "name": "account",
          "type": "address"
        }
      ],
      "name": "revokeRole",
      "outputs": [],
      "stateMutability": "nonpayable",
      "type": "function"
    },
    {
      "inputs": [
        {
          "internalType": "address",
          "name": "from",
          "type": "address"
        },
        {
          "internalType": "address",
          "name": "to",
          "type": "address"
        },
        {
          "internalType": "uint256",
          "name": "tokenId",
          "type": "uint256"
        }
      ],
      "name": "safeTransferFrom",
      "outputs": [],
      "stateMutability": "nonpayable",
      "type": "function"
    },
    {
      "inputs": [
        {
          "internalType": "address",
          "name": "from",
          "type": "address"
        },
        {
          "internalType": "address",
          "name": "to",
          "type": "address"
        },
        {
          "internalType": "uint256",
          "name": "tokenId",
          "type": "uint256"
        },
        {
          "internalType": "bytes",
          "name": "_data",
          "type": "bytes"
        }
      ],
      "name": "safeTransferFrom",
      "outputs": [],
      "stateMutability": "nonpayable",
      "type": "function"
    },
    {
      "inputs": [
        {
          "internalType": "address",
          "name": "operator",
          "type": "address"
        },
        {
          "internalType": "bool",
          "name": "approved",
          "type": "bool"
        }
      ],
      "name": "setApprovalForAll",
      "outputs": [],
      "stateMutability": "nonpayable",
      "type": "function"
    },
    {
      "inputs": [
        {
          "internalType": "string",
          "name": "__baseURI",
          "type": "string"
        }
      ],
      "name": "setBaseURI",
      "outputs": [],
      "stateMutability": "nonpayable",
      "type": "function"
    },
    {
      "inputs": [
        {
          "internalType": "uint32",
          "name": "_callbackGasLimit",
          "type": "uint32"
        }
      ],
      "name": "setCallbackGasLimit",
      "outputs": [],
      "stateMutability": "nonpayable",
      "type": "function"
    },
    {
      "inputs": [
        {
          "internalType": "bytes32",
          "name": "_gasLaneKeyHash",
          "type": "bytes32"
        }
      ],
      "name": "setGasLaneKeyHash",
      "outputs": [],
      "stateMutability": "nonpayable",
      "type": "function"
    },
    {
      "inputs": [
        {
          "internalType": "bool",
          "name": "_isSaleActive",
          "type": "bool"
        }
      ],
      "name": "setIsSaleActive",
      "outputs": [],
      "stateMutability": "nonpayable",
      "type": "function"
    },
    {
      "inputs": [
        {
          "internalType": "uint64",
          "name": "_linkSubscriptionId",
          "type": "uint64"
        }
      ],
      "name": "setLinkSubscriptionId",
      "outputs": [],
      "stateMutability": "nonpayable",
      "type": "function"
    },
    {
      "inputs": [
        {
          "internalType": "uint256",
          "name": "_maxPerWallet",
          "type": "uint256"
        }
      ],
      "name": "setMaxMintPerWallet",
      "outputs": [],
      "stateMutability": "nonpayable",
      "type": "function"
    },
    {
      "inputs": [
        {
          "internalType": "uint256",
          "name": "_mintPrice",
          "type": "uint256"
        }
      ],
      "name": "setMintPrice",
      "outputs": [],
      "stateMutability": "nonpayable",
      "type": "function"
    },
    {
      "inputs": [
        {
          "internalType": "uint16",
          "name": "_requestConfirmations",
          "type": "uint16"
        }
      ],
      "name": "setRequestConfirmations",
      "outputs": [],
      "stateMutability": "nonpayable",
      "type": "function"
    },
    {
      "inputs": [
        {
          "internalType": "bool",
          "name": "_revealed",
          "type": "bool"
        }
      ],
      "name": "setRevealed",
      "outputs": [],
      "stateMutability": "nonpayable",
      "type": "function"
    },
    {
      "inputs": [
        {
          "internalType": "address",
          "name": "account",
          "type": "address"
        }
      ],
      "name": "shares",
      "outputs": [
        {
          "internalType": "uint256",
          "name": "",
          "type": "uint256"
        }
      ],
      "stateMutability": "view",
      "type": "function"
    },
    {
      "inputs": [
        {
          "internalType": "bytes4",
          "name": "interfaceID",
          "type": "bytes4"
        }
      ],
      "name": "supportsInterface",
      "outputs": [
        {
          "internalType": "bool",
          "name": "",
          "type": "bool"
        }
      ],
      "stateMutability": "view",
      "type": "function"
    },
    {
      "inputs": [],
      "name": "symbol",
      "outputs": [
        {
          "internalType": "string",
          "name": "",
          "type": "string"
        }
      ],
      "stateMutability": "view",
      "type": "function"
    },
    {
      "inputs": [],
      "name": "tokenOffset",
      "outputs": [
        {
          "internalType": "uint256",
          "name": "",
          "type": "uint256"
        }
      ],
      "stateMutability": "view",
      "type": "function"
    },
    {
      "inputs": [
        {
          "internalType": "uint256",
          "name": "tokenId",
          "type": "uint256"
        }
      ],
      "name": "tokenURI",
      "outputs": [
        {
          "internalType": "string",
          "name": "",
          "type": "string"
        }
      ],
      "stateMutability": "view",
      "type": "function"
    },
    {
      "inputs": [
        {
          "internalType": "contract IERC20",
          "name": "token",
          "type": "address"
        }
      ],
      "name": "totalReleased",
      "outputs": [
        {
          "internalType": "uint256",
          "name": "",
          "type": "uint256"
        }
      ],
      "stateMutability": "view",
      "type": "function"
    },
    {
      "inputs": [],
      "name": "totalReleased",
      "outputs": [
        {
          "internalType": "uint256",
          "name": "",
          "type": "uint256"
        }
      ],
      "stateMutability": "view",
      "type": "function"
    },
    {
      "inputs": [],
      "name": "totalShares",
      "outputs": [
        {
          "internalType": "uint256",
          "name": "",
          "type": "uint256"
        }
      ],
      "stateMutability": "view",
      "type": "function"
    },
    {
      "inputs": [],
      "name": "totalSupply",
      "outputs": [
        {
          "internalType": "uint256",
          "name": "",
          "type": "uint256"
        }
      ],
      "stateMutability": "view",
      "type": "function"
    },
    {
      "inputs": [
        {
          "internalType": "address",
          "name": "from",
          "type": "address"
        },
        {
          "internalType": "address",
          "name": "to",
          "type": "address"
        },
        {
          "internalType": "uint256",
          "name": "tokenId",
          "type": "uint256"
        }
      ],
      "name": "transferFrom",
      "outputs": [],
      "stateMutability": "nonpayable",
      "type": "function"
    },
    {
      "stateMutability": "payable",
      "type": "receive"
    }
  ],
  "bytecode": {
    "object": "0x60a0604052600260115566f52322698080006012553480156200002157600080fd5b5060405162003b5638038062003b5683398101604081905262000044916200078c565b604080518082018252600f81526e4d616420506172726f74204372657760881b6020808301918252835180850190945260038452624d504360e81b90840152815173271682deb8c4e0901d1a1550ad2e64d568e6990993869386939092620000af91600291620005e7565b508051620000c5906003906020840190620005e7565b5060008055505080518251146200013e5760405162461bcd60e51b815260206004820152603260248201527f5061796d656e7453706c69747465723a2070617965657320616e6420736861726044820152710cae640d8cadccee8d040dad2e6dac2e8c6d60731b60648201526084015b60405180910390fd5b6000825111620001915760405162461bcd60e51b815260206004820152601a60248201527f5061796d656e7453706c69747465723a206e6f20706179656573000000000000604482015260640162000135565b60005b8251811015620001fd57620001e8838281518110620001b757620001b762000870565b6020026020010151838381518110620001d457620001d462000870565b60200260200101516200029f60201b60201c565b80620001f4816200089c565b91505062000194565b5050506001600160a01b0316608052620002196000846200048d565b620002266000336200048d565b505060148054600160201b600160c01b03191677271682deb8c4e0901d1a1550ad2e64d568e6990900000000179055507f8af398995b04c28e9951adb9721ef74c74f93e6a478f39e7e0777be13527e7ef601555601680546001600160701b0319166c0300061a8000000000000000251790556200090f565b6001600160a01b0382166200030c5760405162461bcd60e51b815260206004820152602c60248201527f5061796d656e7453706c69747465723a206163636f756e74206973207468652060448201526b7a65726f206164647265737360a01b606482015260840162000135565b600081116200035e5760405162461bcd60e51b815260206004820152601d60248201527f5061796d656e7453706c69747465723a20736861726573206172652030000000604482015260640162000135565b6001600160a01b0382166000908152600a602052604090205415620003da5760405162461bcd60e51b815260206004820152602b60248201527f5061796d656e7453706c69747465723a206163636f756e7420616c726561647960448201526a206861732073686172657360a81b606482015260840162000135565b600c8054600181019091557fdf6966c971051c3d54ec59162606531493a51404a002842f56009d7e5cf4a8c70180546001600160a01b0319166001600160a01b0384169081179091556000908152600a6020526040902081905560085462000444908290620008b8565b600855604080516001600160a01b0384168152602081018390527f40c340f65e17194d14ddddb073d3c9f888e3cb52b5aae0c6c7706b4fbc905fac910160405180910390a15050565b620004a48282620004d060201b62001cf61760201c565b6000828152601060209081526040909120620004cb91839062001d7c62000575821b17901c565b505050565b6000828152600f602090815260408083206001600160a01b038516845290915290205460ff1662000571576000828152600f602090815260408083206001600160a01b03851684529091529020805460ff19166001179055620005303390565b6001600160a01b0316816001600160a01b0316837f2f8788117e7eff1d82e926ec794901d17c78024a50270940304540a733656f0d60405160405180910390a45b5050565b60006200058c836001600160a01b03841662000595565b90505b92915050565b6000818152600183016020526040812054620005de575081546001818101845560008481526020808220909301849055845484825282860190935260409020919091556200058f565b5060006200058f565b828054620005f590620008d3565b90600052602060002090601f01602090048101928262000619576000855562000664565b82601f106200063457805160ff191683800117855562000664565b8280016001018555821562000664579182015b828111156200066457825182559160200191906001019062000647565b506200067292915062000676565b5090565b5b8082111562000672576000815560010162000677565b80516001600160a01b0381168114620006a557600080fd5b919050565b634e487b7160e01b600052604160045260246000fd5b604051601f8201601f191681016001600160401b0381118282101715620006eb57620006eb620006aa565b604052919050565b60006001600160401b038211156200070f576200070f620006aa565b5060051b60200190565b600082601f8301126200072b57600080fd5b81516020620007446200073e83620006f3565b620006c0565b82815260059290921b840181019181810190868411156200076457600080fd5b8286015b8481101562000781578051835291830191830162000768565b509695505050505050565b600080600060608486031215620007a257600080fd5b620007ad846200068d565b602085810151919450906001600160401b0380821115620007cd57600080fd5b818701915087601f830112620007e257600080fd5b8151620007f36200073e82620006f3565b81815260059190911b8301840190848101908a8311156200081357600080fd5b938501935b828510156200083c576200082c856200068d565b8252938501939085019062000818565b60408a015190975094505050808311156200085657600080fd5b5050620008668682870162000719565b9150509250925092565b634e487b7160e01b600052603260045260246000fd5b634e487b7160e01b600052601160045260246000fd5b600060018201620008b157620008b162000886565b5060010190565b60008219821115620008ce57620008ce62000886565b500190565b600181811c90821680620008e857607f821691505b6020821081036200090957634e487b7160e01b600052602260045260246000fd5b50919050565b6080516132246200093260003960008181611032015261107401526132246000f3fe6080604052600436106103c75760003560e01c80638b83209b116101f2578063b88d4fde1161010d578063dc8c57b4116100a0578063ee0776251161006f578063ee07762514610c15578063f259a29e14610c2a578063f4a0a52814610c3f578063ff1b655614610c5f57600080fd5b8063dc8c57b414610b81578063e0a8085314610b97578063e33b7de314610bb7578063e985e9c514610bcc57600080fd5b8063ce7c2ac2116100dc578063ce7c2ac214610ad5578063d2d65ff514610b0b578063d547741f14610b2b578063d79779b214610b4b57600080fd5b8063b88d4fde14610a55578063c45ac05014610a75578063c87b56dd14610a95578063ca15c87314610ab557600080fd5b80639d2cc43611610185578063a4eb718c11610154578063a4eb718c146109ca578063a81488bd146109ea578063afdf613414610a00578063b0fb162f14610a2057600080fd5b80639d2cc4361461095f578063a217fddf14610975578063a22cb4651461098a578063a3f8eace146109aa57600080fd5b806391d14854116101c157806391d14854146108e157806394bf804d1461090157806395d89b41146109145780639852595c1461092957600080fd5b80638b83209b146108765780638d323a8b146108965780638da5cb5b146108ac5780639010d07c146108c157600080fd5b8063357b794e116102e257806351830227116102755780636352211e116102445780636352211e146108005780636817c76c1461082057806370a08231146108365780638824f5a71461085657600080fd5b8063518302271461076f57806355f804b314610789578063564566a8146107a95780635a3d84b4146107c857600080fd5b806342842e0e116102b157806342842e0e146106f9578063453c23101461071957806348b750441461072f5780634ab5927e1461074f57600080fd5b8063357b794e1461065d57806336568abe1461067e5780633a98ef391461069e578063406072a9146106b357600080fd5b806318160ddd1161035a578063248a9ca311610329578063248a9ca3146105be57806324f74697146105ee5780632f2ff15d1461062757806332cb6b0c1461064757600080fd5b806318160ddd1461053b578063191655871461055e5780631fe543e31461057e57806323b872dd1461059e57600080fd5b80630bf5c67f116103965780630bf5c67f146104c65780630d7982ad146104e65780630fc50ebb146104fb578063140370681461051b57600080fd5b806301ffc9a71461041557806306fdde031461044a578063081812fc1461046c578063095ea7b3146104a457600080fd5b36610410577f6ef95f06320e7a25a04a175ca677b7052bdd97131872c2192525a629f51be77033604080516001600160a01b0390921682523460208301520160405180910390a1005b600080fd5b34801561042157600080fd5b50610435610430366004612a69565b610c82565b60405190151581526020015b60405180910390f35b34801561045657600080fd5b5061045f610ca2565b6040516104419190612ade565b34801561047857600080fd5b5061048c610487366004612af1565b610d34565b6040516001600160a01b039091168152602001610441565b3480156104b057600080fd5b506104c46104bf366004612b1f565b610d78565b005b3480156104d257600080fd5b506104c46104e1366004612b4b565b610e18565b3480156104f257600080fd5b506104c4610e47565b34801561050757600080fd5b506014546104359062010000900460ff1681565b34801561052757600080fd5b506104c4610536366004612b74565b610ec4565b34801561054757600080fd5b50600154600054035b604051908152602001610441565b34801561056a57600080fd5b506104c4610579366004612b74565b610f40565b34801561058a57600080fd5b506104c4610599366004612bd7565b611027565b3480156105aa57600080fd5b506104c46105b9366004612c88565b6110af565b3480156105ca57600080fd5b506105506105d9366004612af1565b6000908152600f602052604090206001015490565b3480156105fa57600080fd5b5060165461061290600160401b900463ffffffff1681565b60405163ffffffff9091168152602001610441565b34801561063357600080fd5b506104c4610642366004612cc9565b611247565b34801561065357600080fd5b50610550611b3981565b34801561066957600080fd5b50601454610435906301000000900460ff1681565b34801561068a57600080fd5b506104c4610699366004612cc9565b611271565b3480156106aa57600080fd5b50600854610550565b3480156106bf57600080fd5b506105506106ce366004612cf9565b6001600160a01b039182166000908152600e6020908152604080832093909416825291909152205490565b34801561070557600080fd5b506104c4610714366004612c88565b6112eb565b34801561072557600080fd5b5061055060115481565b34801561073b57600080fd5b506104c461074a366004612cf9565b611306565b34801561075b57600080fd5b506104c461076a366004612af1565b611417565b34801561077b57600080fd5b506014546104359060ff1681565b34801561079557600080fd5b506104c46107a4366004612d7e565b611428565b3480156107b557600080fd5b5060145461043590610100900460ff1681565b3480156107d457600080fd5b506016546107e8906001600160401b031681565b6040516001600160401b039091168152602001610441565b34801561080c57600080fd5b5061048c61081b366004612af1565b61148c565b34801561082c57600080fd5b5061055060125481565b34801561084257600080fd5b50610550610851366004612b74565b611497565b34801561086257600080fd5b506104c4610871366004612dc6565b6114e5565b34801561088257600080fd5b5061048c610891366004612af1565b611513565b3480156108a257600080fd5b5061055060175481565b3480156108b857600080fd5b5061048c611543565b3480156108cd57600080fd5b5061048c6108dc366004612dea565b611554565b3480156108ed57600080fd5b506104356108fc366004612cc9565b611573565b6104c461090f366004612cc9565b61159e565b34801561092057600080fd5b5061045f611766565b34801561093557600080fd5b50610550610944366004612b74565b6001600160a01b03166000908152600b602052604090205490565b34801561096b57600080fd5b5061055061019081565b34801561098157600080fd5b50610550600081565b34801561099657600080fd5b506104c46109a5366004612e1a565b611775565b3480156109b657600080fd5b506105506109c5366004612b74565b61180a565b3480156109d657600080fd5b506104c46109e5366004612e48565b61184b565b3480156109f657600080fd5b5061055060155481565b348015610a0c57600080fd5b506104c4610a1b366004612af1565b611882565b348015610a2c57600080fd5b50601654610a4290600160601b900461ffff1681565b60405161ffff9091168152602001610441565b348015610a6157600080fd5b506104c4610a70366004612e6e565b611893565b348015610a8157600080fd5b50610550610a90366004612cf9565b6118dd565b348015610aa157600080fd5b5061045f610ab0366004612af1565b6119a8565b348015610ac157600080fd5b50610550610ad0366004612af1565b611a2b565b348015610ae157600080fd5b50610550610af0366004612b74565b6001600160a01b03166000908152600a602052604090205490565b348015610b1757600080fd5b506104c4610b26366004612eed565b611a42565b348015610b3757600080fd5b506104c4610b46366004612cc9565b611ab7565b348015610b5757600080fd5b50610550610b66366004612b74565b6001600160a01b03166000908152600d602052604090205490565b348015610b8d57600080fd5b5061055060185481565b348015610ba357600080fd5b506104c4610bb2366004612eed565b611adc565b348015610bc357600080fd5b50600954610550565b348015610bd857600080fd5b50610435610be7366004612cf9565b6001600160a01b03918216600090815260076020908152604080832093909416825291909152205460ff1690565b348015610c2157600080fd5b506104c4611b41565b348015610c3657600080fd5b5061045f611c57565b348015610c4b57600080fd5b506104c4610c5a366004612af1565b611ce5565b348015610c6b57600080fd5b5061045f6040518060200160405280600081525081565b6000610c8d82611d91565b80610c9c5750610c9c82611ddf565b92915050565b606060028054610cb190612f0a565b80601f0160208091040260200160405190810160405280929190818152602001828054610cdd90612f0a565b8015610d2a5780601f10610cff57610100808354040283529160200191610d2a565b820191906000526020600020905b815481529060010190602001808311610d0d57829003601f168201915b5050505050905090565b6000610d3f82611e04565b610d5c576040516333d1c03960e21b815260040160405180910390fd5b506000908152600660205260409020546001600160a01b031690565b6000610d838261148c565b9050336001600160a01b03821614610dbc57610d9f8133610be7565b610dbc576040516367d9dca160e11b815260040160405180910390fd5b60008281526006602052604080822080546001600160a01b0319166001600160a01b0387811691821790925591518593918516917f8c5be1e5ebec7d5bd14f71427d1e84f3dd0314c0f7b2291e5b200ac8c7c3b92591a4505050565b6000610e2381611e2b565b506016805467ffffffffffffffff19166001600160401b0392909216919091179055565b6000610e5281611e2b565b60145462010000900460ff1615610eb05760405162461bcd60e51b815260206004820152601960248201527f4d696e74696e6720697320616c7265616479206c6f636b65640000000000000060448201526064015b60405180910390fd5b506014805462ffff00191662010000179055565b6000610ecf81611e2b565b6014546301000000900460ff1615610f1d5760405162461bcd60e51b8152602060048201526011602482015270105b1c9958591e481c1c995b5a5b9d1959607a1b6044820152606401610ea7565b610f2982610190611e38565b50506014805463ff00000019166301000000179055565b6001600160a01b0381166000908152600a6020526040902054610f755760405162461bcd60e51b8152600401610ea790612f44565b6000610f808261180a565b905080600003610fa25760405162461bcd60e51b8152600401610ea790612f8a565b8060096000828254610fb49190612feb565b90915550506001600160a01b0382166000908152600b60205260409020805482019055610fe18282611e52565b604080516001600160a01b0384168152602081018390527fdf20fd1e76bc69d672e4814fafb2c449bba3a5369d8359adf9e05e6fde87b056910160405180910390a15050565b336001600160a01b037f000000000000000000000000000000000000000000000000000000000000000016146110a15760405163073e64fd60e21b81523360048201526001600160a01b037f0000000000000000000000000000000000000000000000000000000000000000166024820152604401610ea7565b6110ab8282611f6b565b5050565b60006110ba82611fbb565b9050836001600160a01b0316816001600160a01b0316146110ed5760405162a1148160e81b815260040160405180910390fd5b60008281526006602052604090208054338082146001600160a01b0388169091141761113a5761111d8633610be7565b61113a57604051632ce44b5f60e11b815260040160405180910390fd5b6001600160a01b03851661116157604051633a954ecd60e21b815260040160405180910390fd5b801561116c57600082555b6001600160a01b038681166000908152600560205260408082208054600019019055918716808252919020805460010190554260a01b17600160e11b17600085815260046020526040812091909155600160e11b841690036111fe576001840160008181526004602052604081205490036111fc5760005481146111fc5760008181526004602052604090208490555b505b83856001600160a01b0316876001600160a01b03167fddf252ad1be2c89b69c2b068fc378daa952ba7f163c4a11628f55a4df523b3ef60405160405180910390a4505050505050565b6000828152600f602052604090206001015461126281611e2b565b61126c8383612022565b505050565b6001600160a01b03811633146112e15760405162461bcd60e51b815260206004820152602f60248201527f416363657373436f6e74726f6c3a2063616e206f6e6c792072656e6f756e636560448201526e103937b632b9903337b91039b2b63360891b6064820152608401610ea7565b6110ab8282612044565b61126c83838360405180602001604052806000815250611893565b6001600160a01b0381166000908152600a602052604090205461133b5760405162461bcd60e51b8152600401610ea790612f44565b600061134783836118dd565b9050806000036113695760405162461bcd60e51b8152600401610ea790612f8a565b6001600160a01b0383166000908152600d602052604081208054839290611391908490612feb565b90915550506001600160a01b038084166000908152600e602090815260408083209386168352929052208054820190556113cc838383612066565b604080516001600160a01b038481168252602082018490528516917f3be5b7a71e84ed12875d241991c70855ac5817d847039e17a9d895c1ceb0f18a910160405180910390a2505050565b600061142281611e2b565b50601555565b600061143381611e2b565b60145460ff16156114795760405162461bcd60e51b815260206004820152601060248201526f105b1c9958591e481c995d99585b195960821b6044820152606401610ea7565b815161126c9060139060208501906129ba565b6000610c9c82611fbb565b60006001600160a01b0382166114c0576040516323d3ad8160e21b815260040160405180910390fd5b506001600160a01b03166000908152600560205260409020546001600160401b031690565b60006114f081611e2b565b506016805461ffff909216600160601b0261ffff60601b19909216919091179055565b6000600c828154811061152857611528613003565b6000918252602090912001546001600160a01b031692915050565b600061154f8180611554565b905090565b600082815260106020526040812061156c90836120b8565b9392505050565b6000918252600f602090815260408084206001600160a01b0393909316845291905290205460ff1690565b60145462010000900460ff16156115eb5760405162461bcd60e51b8152602060048201526011602482015270135a5b9d1a5b99c81a5cc81b1bd8dad959607a1b6044820152606401610ea7565b601454610100900460ff166116375760405162461bcd60e51b815260206004820152601260248201527153616c65206973206e6f742061637469766560701b6044820152606401610ea7565b6011546001600160a01b0382166000908152600560205260409081902054611669911c6001600160401b031684612feb565b11156116b05760405162461bcd60e51b8152602060048201526016602482015275115e18d959591cc81b585e081c195c881dd85b1b195d60521b6044820152606401610ea7565b816012546116be9190613019565b34146116ff5760405162461bcd60e51b815260206004820152601060248201526f2737ba1032b737bab3b41032ba3432b960811b6044820152606401610ea7565b611b3961170f6001546000540390565b6117199084612feb565b111561175c5760405162461bcd60e51b815260206004820152601260248201527145786365656473206d617820737570706c7960701b6044820152606401610ea7565b6110ab8183611e38565b606060038054610cb190612f0a565b336001600160a01b0383160361179e5760405163b06307db60e01b815260040160405180910390fd5b3360008181526007602090815260408083206001600160a01b03871680855290835292819020805460ff191686151590811790915590519081529192917f17307eab39ab6107e8899845ad3d59bd9653f200f220920489ca2b5937696c31910160405180910390a35050565b60008061181660095490565b6118209047612feb565b905061156c8382611846866001600160a01b03166000908152600b602052604090205490565b6120c4565b600061185681611e2b565b506016805463ffffffff909216600160401b026bffffffff000000000000000019909216919091179055565b600061188d81611e2b565b50601155565b61189e8484846110af565b6001600160a01b0383163b156118d7576118ba84848484612102565b6118d7576040516368d2bf6b60e11b815260040160405180910390fd5b50505050565b6001600160a01b0382166000908152600d602052604081205481906040516370a0823160e01b81523060048201526001600160a01b038616906370a0823190602401602060405180830381865afa15801561193c573d6000803e3d6000fd5b505050506040513d601f19601f820116820180604052508101906119609190613038565b61196a9190612feb565b6001600160a01b038086166000908152600e60209081526040808320938816835292905220549091506119a090849083906120c4565b949350505050565b60606119b382611e04565b6119d057604051630a14c4b560e41b815260040160405180910390fd5b60006119da6121ed565b905080516000036119fa576040518060200160405280600081525061156c565b80611a04846121fc565b604051602001611a15929190613051565b6040516020818303038152906040529392505050565b6000818152601060205260408120610c9c9061224b565b6000611a4d81611e2b565b6014546301000000900460ff16611a9c5760405162461bcd60e51b81526020600482015260136024820152725072656d696e74206265666f72652073616c6560681b6044820152606401610ea7565b50601480549115156101000261ff0019909216919091179055565b6000828152600f6020526040902060010154611ad281611e2b565b61126c8383612044565b6000611ae781611e2b565b60145460ff1615611b2d5760405162461bcd60e51b815260206004820152601060248201526f105b1c9958591e481c995d99585b195960821b6044820152606401610ea7565b506014805460ff1916911515919091179055565b6000611b4c81611e2b565b60185415611b9c5760405162461bcd60e51b815260206004820152601860248201527f546f6b656e206f666673657420616c72656164792073657400000000000000006044820152606401610ea7565b6014546015546016546040516305d3b1d360e41b815260048101929092526001600160401b0381166024830152600160601b810461ffff166044830152600160401b900463ffffffff166064820152600260848201526401000000009091046001600160a01b031690635d3b1d309060a4016020604051808303816000875af1158015611c2d573d6000803e3d6000fd5b505050506040513d601f19601f82011682018060405250810190611c519190613038565b60175550565b60138054611c6490612f0a565b80601f0160208091040260200160405190810160405280929190818152602001828054611c9090612f0a565b8015611cdd5780601f10611cb257610100808354040283529160200191611cdd565b820191906000526020600020905b815481529060010190602001808311611cc057829003601f168201915b505050505081565b6000611cf081611e2b565b50601255565b611d008282611573565b6110ab576000828152600f602090815260408083206001600160a01b03851684529091529020805460ff19166001179055611d383390565b6001600160a01b0316816001600160a01b0316837f2f8788117e7eff1d82e926ec794901d17c78024a50270940304540a733656f0d60405160405180910390a45050565b600061156c836001600160a01b038416612255565b60006301ffc9a760e01b6001600160e01b031983161480611dc257506380ac58cd60e01b6001600160e01b03198316145b80610c9c5750506001600160e01b031916635b5e139f60e01b1490565b60006001600160e01b03198216635a05180f60e01b1480610c9c5750610c9c826122a4565b6000805482108015610c9c575050600090815260046020526040902054600160e01b161590565b611e3581336122d9565b50565b6110ab828260405180602001604052806000815250612332565b80471015611ea25760405162461bcd60e51b815260206004820152601d60248201527f416464726573733a20696e73756666696369656e742062616c616e63650000006044820152606401610ea7565b6000826001600160a01b03168260405160006040518083038185875af1925050503d8060008114611eef576040519150601f19603f3d011682016040523d82523d6000602084013e611ef4565b606091505b505090508061126c5760405162461bcd60e51b815260206004820152603a60248201527f416464726573733a20756e61626c6520746f2073656e642076616c75652c207260448201527f6563697069656e74206d617920686176652072657665727465640000000000006064820152608401610ea7565b80600081518110611f7e57611f7e613003565b60200260200101516018819055506018546000036110ab5780600181518110611fa957611fa9613003565b60200260200101516018819055505050565b6000816000548110156120095760008181526004602052604081205490600160e01b82169003612007575b8060000361156c575060001901600081815260046020526040902054611fe6565b505b604051636f96cda160e11b815260040160405180910390fd5b61202c8282611cf6565b600082815260106020526040902061126c9082611d7c565b61204e828261239f565b600082815260106020526040902061126c9082612406565b604080516001600160a01b038416602482015260448082018490528251808303909101815260649091019091526020810180516001600160e01b031663a9059cbb60e01b17905261126c90849061241b565b600061156c83836124ed565b6008546001600160a01b0384166000908152600a6020526040812054909183916120ee9086613019565b6120f89190613080565b6119a091906130a2565b604051630a85bd0160e11b81526000906001600160a01b0385169063150b7a02906121379033908990889088906004016130b9565b6020604051808303816000875af1925050508015612172575060408051601f3d908101601f1916820190925261216f918101906130f6565b60015b6121d0573d8080156121a0576040519150601f19603f3d011682016040523d82523d6000602084013e6121a5565b606091505b5080516000036121c8576040516368d2bf6b60e11b815260040160405180910390fd5b805181602001fd5b6001600160e01b031916630a85bd0160e11b149050949350505050565b606060138054610cb190612f0a565b604080516080810191829052607f0190826030600a8206018353600a90045b801561223957600183039250600a81066030018353600a900461221b565b50819003601f19909101908152919050565b6000610c9c825490565b600081815260018301602052604081205461229c57508154600181810184556000848152602080822090930184905584548482528286019093526040902091909155610c9c565b506000610c9c565b60006001600160e01b03198216637965db0b60e01b1480610c9c57506301ffc9a760e01b6001600160e01b0319831614610c9c565b6122e38282611573565b6110ab576122f081612517565b6122fb836020612529565b60405160200161230c929190613113565b60408051601f198184030181529082905262461bcd60e51b8252610ea791600401612ade565b61233c83836126c4565b6001600160a01b0383163b1561126c576000548281035b6123666000868380600101945086612102565b612383576040516368d2bf6b60e11b815260040160405180910390fd5b81811061235357816000541461239857600080fd5b5050505050565b6123a98282611573565b156110ab576000828152600f602090815260408083206001600160a01b0385168085529252808320805460ff1916905551339285917ff6391f5c32d9c69d2a47ea670b442974b53935d1edc7fd64eb21e047a839171b9190a45050565b600061156c836001600160a01b0384166127a4565b6000612470826040518060400160405280602081526020017f5361666545524332303a206c6f772d6c6576656c2063616c6c206661696c6564815250856001600160a01b03166128979092919063ffffffff16565b80519091501561126c578080602001905181019061248e9190613188565b61126c5760405162461bcd60e51b815260206004820152602a60248201527f5361666545524332303a204552433230206f7065726174696f6e20646964206e6044820152691bdd081cdd58d8d9595960b21b6064820152608401610ea7565b600082600001828154811061250457612504613003565b9060005260206000200154905092915050565b6060610c9c6001600160a01b03831660145b60606000612538836002613019565b612543906002612feb565b6001600160401b0381111561255a5761255a612b91565b6040519080825280601f01601f191660200182016040528015612584576020820181803683370190505b509050600360fc1b8160008151811061259f5761259f613003565b60200101906001600160f81b031916908160001a905350600f60fb1b816001815181106125ce576125ce613003565b60200101906001600160f81b031916908160001a90535060006125f2846002613019565b6125fd906001612feb565b90505b6001811115612675576f181899199a1a9b1b9c1cb0b131b232b360811b85600f166010811061263157612631613003565b1a60f81b82828151811061264757612647613003565b60200101906001600160f81b031916908160001a90535060049490941c9361266e816131a5565b9050612600565b50831561156c5760405162461bcd60e51b815260206004820181905260248201527f537472696e67733a20686578206c656e67746820696e73756666696369656e746044820152606401610ea7565b6000546001600160a01b0383166126ed57604051622e076360e81b815260040160405180910390fd5b8160000361270e5760405163b562e8dd60e01b815260040160405180910390fd5b6001600160a01b038316600081815260056020526040902080546801000000000000000185020190554260a01b6001841460e11b1717600082815260046020526040902055808281015b6040516001830192906001600160a01b038716906000907fddf252ad1be2c89b69c2b068fc378daa952ba7f163c4a11628f55a4df523b3ef908290a48082106127585760005550505050565b6000818152600183016020526040812054801561288d5760006127c86001836130a2565b85549091506000906127dc906001906130a2565b90508181146128415760008660000182815481106127fc576127fc613003565b906000526020600020015490508087600001848154811061281f5761281f613003565b6000918252602080832090910192909255918252600188019052604090208390555b8554869080612852576128526131bc565b600190038181906000526020600020016000905590558560010160008681526020019081526020016000206000905560019350505050610c9c565b6000915050610c9c565b60606119a0848460008585600080866001600160a01b031685876040516128be91906131d2565b60006040518083038185875af1925050503d80600081146128fb576040519150601f19603f3d011682016040523d82523d6000602084013e612900565b606091505b50915091506129118783838761291c565b979650505050505050565b6060831561298b578251600003612984576001600160a01b0385163b6129845760405162461bcd60e51b815260206004820152601d60248201527f416464726573733a2063616c6c20746f206e6f6e2d636f6e74726163740000006044820152606401610ea7565b50816119a0565b6119a083838151156129a05781518083602001fd5b8060405162461bcd60e51b8152600401610ea79190612ade565b8280546129c690612f0a565b90600052602060002090601f0160209004810192826129e85760008555612a2e565b82601f10612a0157805160ff1916838001178555612a2e565b82800160010185558215612a2e579182015b82811115612a2e578251825591602001919060010190612a13565b50612a3a929150612a3e565b5090565b5b80821115612a3a5760008155600101612a3f565b6001600160e01b031981168114611e3557600080fd5b600060208284031215612a7b57600080fd5b813561156c81612a53565b60005b83811015612aa1578181015183820152602001612a89565b838111156118d75750506000910152565b60008151808452612aca816020860160208601612a86565b601f01601f19169290920160200192915050565b60208152600061156c6020830184612ab2565b600060208284031215612b0357600080fd5b5035919050565b6001600160a01b0381168114611e3557600080fd5b60008060408385031215612b3257600080fd5b8235612b3d81612b0a565b946020939093013593505050565b600060208284031215612b5d57600080fd5b81356001600160401b038116811461156c57600080fd5b600060208284031215612b8657600080fd5b813561156c81612b0a565b634e487b7160e01b600052604160045260246000fd5b604051601f8201601f191681016001600160401b0381118282101715612bcf57612bcf612b91565b604052919050565b60008060408385031215612bea57600080fd5b823591506020808401356001600160401b0380821115612c0957600080fd5b818601915086601f830112612c1d57600080fd5b813581811115612c2f57612c2f612b91565b8060051b9150612c40848301612ba7565b8181529183018401918481019089841115612c5a57600080fd5b938501935b83851015612c7857843582529385019390850190612c5f565b8096505050505050509250929050565b600080600060608486031215612c9d57600080fd5b8335612ca881612b0a565b92506020840135612cb881612b0a565b929592945050506040919091013590565b60008060408385031215612cdc57600080fd5b823591506020830135612cee81612b0a565b809150509250929050565b60008060408385031215612d0c57600080fd5b8235612d1781612b0a565b91506020830135612cee81612b0a565b60006001600160401b03831115612d4057612d40612b91565b612d53601f8401601f1916602001612ba7565b9050828152838383011115612d6757600080fd5b828260208301376000602084830101529392505050565b600060208284031215612d9057600080fd5b81356001600160401b03811115612da657600080fd5b8201601f81018413612db757600080fd5b6119a084823560208401612d27565b600060208284031215612dd857600080fd5b813561ffff8116811461156c57600080fd5b60008060408385031215612dfd57600080fd5b50508035926020909101359150565b8015158114611e3557600080fd5b60008060408385031215612e2d57600080fd5b8235612e3881612b0a565b91506020830135612cee81612e0c565b600060208284031215612e5a57600080fd5b813563ffffffff8116811461156c57600080fd5b60008060008060808587031215612e8457600080fd5b8435612e8f81612b0a565b93506020850135612e9f81612b0a565b92506040850135915060608501356001600160401b03811115612ec157600080fd5b8501601f81018713612ed257600080fd5b612ee187823560208401612d27565b91505092959194509250565b600060208284031215612eff57600080fd5b813561156c81612e0c565b600181811c90821680612f1e57607f821691505b602082108103612f3e57634e487b7160e01b600052602260045260246000fd5b50919050565b60208082526026908201527f5061796d656e7453706c69747465723a206163636f756e7420686173206e6f2060408201526573686172657360d01b606082015260800190565b6020808252602b908201527f5061796d656e7453706c69747465723a206163636f756e74206973206e6f742060408201526a191d59481c185e5b595b9d60aa1b606082015260800190565b634e487b7160e01b600052601160045260246000fd5b60008219821115612ffe57612ffe612fd5565b500190565b634e487b7160e01b600052603260045260246000fd5b600081600019048311821515161561303357613033612fd5565b500290565b60006020828403121561304a57600080fd5b5051919050565b60008351613063818460208801612a86565b835190830190613077818360208801612a86565b01949350505050565b60008261309d57634e487b7160e01b600052601260045260246000fd5b500490565b6000828210156130b4576130b4612fd5565b500390565b6001600160a01b03858116825284166020820152604081018390526080606082018190526000906130ec90830184612ab2565b9695505050505050565b60006020828403121561310857600080fd5b815161156c81612a53565b7f416363657373436f6e74726f6c3a206163636f756e742000000000000000000081526000835161314b816017850160208801612a86565b7001034b99036b4b9b9b4b733903937b6329607d1b601791840191820152835161317c816028840160208801612a86565b01602801949350505050565b60006020828403121561319a57600080fd5b815161156c81612e0c565b6000816131b4576131b4612fd5565b506000190190565b634e487b7160e01b600052603160045260246000fd5b600082516131e4818460208701612a86565b919091019291505056fea2646970667358221220f20829f2808c89564285951f7f753d9efd0281b4778a6c84f45b6736f609039964736f6c634300080d0033",
    "linkReferences": {}
  },
  "methodIdentifiers": {
    "DEFAULT_ADMIN_ROLE()": "a217fddf",
    "MAX_SUPPLY()": "32cb6b0c",
    "PROVENANCE_HASH()": "ff1b6556",
    "RESERVE()": "9d2cc436",
    "approve(address,uint256)": "095ea7b3",
    "balanceOf(address)": "70a08231",
    "baseURI_()": "f259a29e",
    "callbackGasLimit()": "24f74697",
    "gasLaneKeyHash()": "a81488bd",
    "generateTokenOffset()": "ee077625",
    "getApproved(uint256)": "081812fc",
    "getRoleAdmin(bytes32)": "248a9ca3",
    "getRoleMember(bytes32,uint256)": "9010d07c",
    "getRoleMemberCount(bytes32)": "ca15c873",
    "grantRole(bytes32,address)": "2f2ff15d",
    "hasRole(bytes32,address)": "91d14854",
    "isApprovedForAll(address,address)": "e985e9c5",
    "isSaleActive()": "564566a8",
    "linkSubscriptionId()": "5a3d84b4",
    "lockMinting()": "0d7982ad",
    "maxPerWallet()": "453c2310",
    "mint(uint256,address)": "94bf804d",
    "mintPrice()": "6817c76c",
    "mintingLocked()": "0fc50ebb",
    "name()": "06fdde03",
    "owner()": "8da5cb5b",
    "ownerOf(uint256)": "6352211e",
    "payee(uint256)": "8b83209b",
    "premint(address)": "14037068",
    "preminted()": "357b794e",
    "randomRequestId()": "8d323a8b",
    "rawFulfillRandomWords(uint256,uint256[])": "1fe543e3",
    "releasable(address)": "a3f8eace",
    "releasable(address,address)": "c45ac050",
    "release(address)": "19165587",
    "release(address,address)": "48b75044",
    "released(address)": "9852595c",
    "released(address,address)": "406072a9",
    "renounceRole(bytes32,address)": "36568abe",
    "requestConfirmations()": "b0fb162f",
    "revealed()": "51830227",
    "revokeRole(bytes32,address)": "d547741f",
    "safeTransferFrom(address,address,uint256)": "42842e0e",
    "safeTransferFrom(address,address,uint256,bytes)": "b88d4fde",
    "setApprovalForAll(address,bool)": "a22cb465",
    "setBaseURI(string)": "55f804b3",
    "setCallbackGasLimit(uint32)": "a4eb718c",
    "setGasLaneKeyHash(bytes32)": "4ab5927e",
    "setIsSaleActive(bool)": "d2d65ff5",
    "setLinkSubscriptionId(uint64)": "0bf5c67f",
    "setMaxMintPerWallet(uint256)": "afdf6134",
    "setMintPrice(uint256)": "f4a0a528",
    "setRequestConfirmations(uint16)": "8824f5a7",
    "setRevealed(bool)": "e0a80853",
    "shares(address)": "ce7c2ac2",
    "supportsInterface(bytes4)": "01ffc9a7",
    "symbol()": "95d89b41",
    "tokenOffset()": "dc8c57b4",
    "tokenURI(uint256)": "c87b56dd",
    "totalReleased()": "e33b7de3",
    "totalReleased(address)": "d79779b2",
    "totalShares()": "3a98ef39",
    "totalSupply()": "18160ddd",
    "transferFrom(address,address,uint256)": "23b872dd"
  },
  "id": 25
}