{
  "abi": [
    {
      "inputs": [
        {
          "internalType": "address",
          "name": "_admin",
          "type": "address"
        },
        {
          "internalType": "address[]",
          "name": "payees",
          "type": "address[]"
        },
        {
          "internalType": "uint256[]",
          "name": "shares",
          "type": "uint256[]"
        }
      ],
      "stateMutability": "nonpayable",
      "type": "constructor"
    },
    {
      "inputs": [],
      "name": "ApprovalCallerNotOwnerNorApproved",
      "type": "error"
    },
    {
      "inputs": [],
      "name": "ApprovalQueryForNonexistentToken",
      "type": "error"
    },
    {
      "inputs": [],
      "name": "ApproveToCaller",
      "type": "error"
    },
    {
      "inputs": [],
      "name": "BalanceQueryForZeroAddress",
      "type": "error"
    },
    {
      "inputs": [],
      "name": "MintERC2309QuantityExceedsLimit",
      "type": "error"
    },
    {
      "inputs": [],
      "name": "MintToZeroAddress",
      "type": "error"
    },
    {
      "inputs": [],
      "name": "MintZeroQuantity",
      "type": "error"
    },
    {
      "inputs": [],
      "name": "OwnerQueryForNonexistentToken",
      "type": "error"
    },
    {
      "inputs": [],
      "name": "OwnershipNotInitializedForExtraData",
      "type": "error"
    },
    {
      "inputs": [],
      "name": "TransferCallerNotOwnerNorApproved",
      "type": "error"
    },
    {
      "inputs": [],
      "name": "TransferFromIncorrectOwner",
      "type": "error"
    },
    {
      "inputs": [],
      "name": "TransferToNonERC721ReceiverImplementer",
      "type": "error"
    },
    {
      "inputs": [],
      "name": "TransferToZeroAddress",
      "type": "error"
    },
    {
      "inputs": [],
      "name": "URIQueryForNonexistentToken",
      "type": "error"
    },
    {
      "anonymous": false,
      "inputs": [
        {
          "indexed": true,
          "internalType": "address",
          "name": "owner",
          "type": "address"
        },
        {
          "indexed": true,
          "internalType": "address",
          "name": "approved",
          "type": "address"
        },
        {
          "indexed": true,
          "internalType": "uint256",
          "name": "tokenId",
          "type": "uint256"
        }
      ],
      "name": "Approval",
      "type": "event"
    },
    {
      "anonymous": false,
      "inputs": [
        {
          "indexed": true,
          "internalType": "address",
          "name": "owner",
          "type": "address"
        },
        {
          "indexed": true,
          "internalType": "address",
          "name": "operator",
          "type": "address"
        },
        {
          "indexed": false,
          "internalType": "bool",
          "name": "approved",
          "type": "bool"
        }
      ],
      "name": "ApprovalForAll",
      "type": "event"
    },
    {
      "anonymous": false,
      "inputs": [
        {
          "indexed": true,
          "internalType": "uint256",
          "name": "fromTokenId",
          "type": "uint256"
        },
        {
          "indexed": false,
          "internalType": "uint256",
          "name": "toTokenId",
          "type": "uint256"
        },
        {
          "indexed": true,
          "internalType": "address",
          "name": "from",
          "type": "address"
        },
        {
          "indexed": true,
          "internalType": "address",
          "name": "to",
          "type": "address"
        }
      ],
      "name": "ConsecutiveTransfer",
      "type": "event"
    },
    {
      "anonymous": false,
      "inputs": [
        {
          "indexed": true,
          "internalType": "contract IERC20",
          "name": "token",
          "type": "address"
        },
        {
          "indexed": false,
          "internalType": "address",
          "name": "to",
          "type": "address"
        },
        {
          "indexed": false,
          "internalType": "uint256",
          "name": "amount",
          "type": "uint256"
        }
      ],
      "name": "ERC20PaymentReleased",
      "type": "event"
    },
    {
      "anonymous": false,
      "inputs": [
        {
          "indexed": false,
          "internalType": "address",
          "name": "account",
          "type": "address"
        },
        {
          "indexed": false,
          "internalType": "uint256",
          "name": "shares",
          "type": "uint256"
        }
      ],
      "name": "PayeeAdded",
      "type": "event"
    },
    {
      "anonymous": false,
      "inputs": [
        {
          "indexed": false,
          "internalType": "address",
          "name": "from",
          "type": "address"
        },
        {
          "indexed": false,
          "internalType": "uint256",
          "name": "amount",
          "type": "uint256"
        }
      ],
      "name": "PaymentReceived",
      "type": "event"
    },
    {
      "anonymous": false,
      "inputs": [
        {
          "indexed": false,
          "internalType": "address",
          "name": "to",
          "type": "address"
        },
        {
          "indexed": false,
          "internalType": "uint256",
          "name": "amount",
          "type": "uint256"
        }
      ],
      "name": "PaymentReleased",
      "type": "event"
    },
    {
      "anonymous": false,
      "inputs": [
        {
          "indexed": true,
          "internalType": "bytes32",
          "name": "role",
          "type": "bytes32"
        },
        {
          "indexed": true,
          "internalType": "bytes32",
          "name": "previousAdminRole",
          "type": "bytes32"
        },
        {
          "indexed": true,
          "internalType": "bytes32",
          "name": "newAdminRole",
          "type": "bytes32"
        }
      ],
      "name": "RoleAdminChanged",
      "type": "event"
    },
    {
      "anonymous": false,
      "inputs": [
        {
          "indexed": true,
          "internalType": "bytes32",
          "name": "role",
          "type": "bytes32"
        },
        {
          "indexed": true,
          "internalType": "address",
          "name": "account",
          "type": "address"
        },
        {
          "indexed": true,
          "internalType": "address",
          "name": "sender",
          "type": "address"
        }
      ],
      "name": "RoleGranted",
      "type": "event"
    },
    {
      "anonymous": false,
      "inputs": [
        {
          "indexed": true,
          "internalType": "bytes32",
          "name": "role",
          "type": "bytes32"
        },
        {
          "indexed": true,
          "internalType": "address",
          "name": "account",
          "type": "address"
        },
        {
          "indexed": true,
          "internalType": "address",
          "name": "sender",
          "type": "address"
        }
      ],
      "name": "RoleRevoked",
      "type": "event"
    },
    {
      "anonymous": false,
      "inputs": [
        {
          "indexed": true,
          "internalType": "address",
          "name": "from",
          "type": "address"
        },
        {
          "indexed": true,
          "internalType": "address",
          "name": "to",
          "type": "address"
        },
        {
          "indexed": true,
          "internalType": "uint256",
          "name": "tokenId",
          "type": "uint256"
        }
      ],
      "name": "Transfer",
      "type": "event"
    },
    {
      "inputs": [],
      "name": "DEFAULT_ADMIN_ROLE",
      "outputs": [
        {
          "internalType": "bytes32",
          "name": "",
          "type": "bytes32"
        }
      ],
      "stateMutability": "view",
      "type": "function"
    },
    {
      "inputs": [],
      "name": "MAX_SUPPLY",
      "outputs": [
        {
          "internalType": "uint256",
          "name": "",
          "type": "uint256"
        }
      ],
      "stateMutability": "view",
      "type": "function"
    },
    {
      "inputs": [
        {
          "internalType": "address",
          "name": "to",
          "type": "address"
        },
        {
          "internalType": "uint256",
          "name": "tokenId",
          "type": "uint256"
        }
      ],
      "name": "approve",
      "outputs": [],
      "stateMutability": "nonpayable",
      "type": "function"
    },
    {
      "inputs": [
        {
          "internalType": "address",
          "name": "owner",
          "type": "address"
        }
      ],
      "name": "balanceOf",
      "outputs": [
        {
          "internalType": "uint256",
          "name": "",
          "type": "uint256"
        }
      ],
      "stateMutability": "view",
      "type": "function"
    },
    {
      "inputs": [],
      "name": "baseURI_",
      "outputs": [
        {
          "internalType": "string",
          "name": "",
          "type": "string"
        }
      ],
      "stateMutability": "view",
      "type": "function"
    },
    {
      "inputs": [
        {
          "internalType": "uint256",
          "name": "tokenId",
          "type": "uint256"
        }
      ],
      "name": "getApproved",
      "outputs": [
        {
          "internalType": "address",
          "name": "",
          "type": "address"
        }
      ],
      "stateMutability": "view",
      "type": "function"
    },
    {
      "inputs": [
        {
          "internalType": "bytes32",
          "name": "role",
          "type": "bytes32"
        }
      ],
      "name": "getRoleAdmin",
      "outputs": [
        {
          "internalType": "bytes32",
          "name": "",
          "type": "bytes32"
        }
      ],
      "stateMutability": "view",
      "type": "function"
    },
    {
      "inputs": [
        {
          "internalType": "bytes32",
          "name": "role",
          "type": "bytes32"
        },
        {
          "internalType": "uint256",
          "name": "index",
          "type": "uint256"
        }
      ],
      "name": "getRoleMember",
      "outputs": [
        {
          "internalType": "address",
          "name": "",
          "type": "address"
        }
      ],
      "stateMutability": "view",
      "type": "function"
    },
    {
      "inputs": [
        {
          "internalType": "bytes32",
          "name": "role",
          "type": "bytes32"
        }
      ],
      "name": "getRoleMemberCount",
      "outputs": [
        {
          "internalType": "uint256",
          "name": "",
          "type": "uint256"
        }
      ],
      "stateMutability": "view",
      "type": "function"
    },
    {
      "inputs": [
        {
          "internalType": "bytes32",
          "name": "role",
          "type": "bytes32"
        },
        {
          "internalType": "address",
          "name": "account",
          "type": "address"
        }
      ],
      "name": "grantRole",
      "outputs": [],
      "stateMutability": "nonpayable",
      "type": "function"
    },
    {
      "inputs": [
        {
          "internalType": "bytes32",
          "name": "role",
          "type": "bytes32"
        },
        {
          "internalType": "address",
          "name": "account",
          "type": "address"
        }
      ],
      "name": "hasRole",
      "outputs": [
        {
          "internalType": "bool",
          "name": "",
          "type": "bool"
        }
      ],
      "stateMutability": "view",
      "type": "function"
    },
    {
      "inputs": [
        {
          "internalType": "address",
          "name": "owner",
          "type": "address"
        },
        {
          "internalType": "address",
          "name": "operator",
          "type": "address"
        }
      ],
      "name": "isApprovedForAll",
      "outputs": [
        {
          "internalType": "bool",
          "name": "",
          "type": "bool"
        }
      ],
      "stateMutability": "view",
      "type": "function"
    },
    {
      "inputs": [],
      "name": "isSaleActive",
      "outputs": [
        {
          "internalType": "bool",
          "name": "",
          "type": "bool"
        }
      ],
      "stateMutability": "view",
      "type": "function"
    },
    {
      "inputs": [],
      "name": "lockMinting",
      "outputs": [],
      "stateMutability": "nonpayable",
      "type": "function"
    },
    {
      "inputs": [],
      "name": "maxPerWallet",
      "outputs": [
        {
          "internalType": "uint256",
          "name": "",
          "type": "uint256"
        }
      ],
      "stateMutability": "view",
      "type": "function"
    },
    {
      "inputs": [
        {
          "internalType": "uint256",
          "name": "_amount",
          "type": "uint256"
        },
        {
          "internalType": "address",
          "name": "_to",
          "type": "address"
        }
      ],
      "name": "mint",
      "outputs": [],
      "stateMutability": "payable",
      "type": "function"
    },
    {
      "inputs": [],
      "name": "mintPrice",
      "outputs": [
        {
          "internalType": "uint256",
          "name": "",
          "type": "uint256"
        }
      ],
      "stateMutability": "view",
      "type": "function"
    },
    {
      "inputs": [],
      "name": "mintingLocked",
      "outputs": [
        {
          "internalType": "bool",
          "name": "",
          "type": "bool"
        }
      ],
      "stateMutability": "view",
      "type": "function"
    },
    {
      "inputs": [],
      "name": "name",
      "outputs": [
        {
          "internalType": "string",
          "name": "",
          "type": "string"
        }
      ],
      "stateMutability": "view",
      "type": "function"
    },
    {
      "inputs": [],
      "name": "owner",
      "outputs": [
        {
          "internalType": "address",
          "name": "",
          "type": "address"
        }
      ],
      "stateMutability": "view",
      "type": "function"
    },
    {
      "inputs": [
        {
          "internalType": "uint256",
          "name": "tokenId",
          "type": "uint256"
        }
      ],
      "name": "ownerOf",
      "outputs": [
        {
          "internalType": "address",
          "name": "",
          "type": "address"
        }
      ],
      "stateMutability": "view",
      "type": "function"
    },
    {
      "inputs": [
        {
          "internalType": "uint256",
          "name": "index",
          "type": "uint256"
        }
      ],
      "name": "payee",
      "outputs": [
        {
          "internalType": "address",
          "name": "",
          "type": "address"
        }
      ],
      "stateMutability": "view",
      "type": "function"
    },
    {
      "inputs": [
        {
          "internalType": "address",
          "name": "account",
          "type": "address"
        }
      ],
      "name": "releasable",
      "outputs": [
        {
          "internalType": "uint256",
          "name": "",
          "type": "uint256"
        }
      ],
      "stateMutability": "view",
      "type": "function"
    },
    {
      "inputs": [
        {
          "internalType": "contract IERC20",
          "name": "token",
          "type": "address"
        },
        {
          "internalType": "address",
          "name": "account",
          "type": "address"
        }
      ],
      "name": "releasable",
      "outputs": [
        {
          "internalType": "uint256",
          "name": "",
          "type": "uint256"
        }
      ],
      "stateMutability": "view",
      "type": "function"
    },
    {
      "inputs": [
        {
          "internalType": "address payable",
          "name": "account",
          "type": "address"
        }
      ],
      "name": "release",
      "outputs": [],
      "stateMutability": "nonpayable",
      "type": "function"
    },
    {
      "inputs": [
        {
          "internalType": "contract IERC20",
          "name": "token",
          "type": "address"
        },
        {
          "internalType": "address",
          "name": "account",
          "type": "address"
        }
      ],
      "name": "release",
      "outputs": [],
      "stateMutability": "nonpayable",
      "type": "function"
    },
    {
      "inputs": [
        {
          "internalType": "contract IERC20",
          "name": "token",
          "type": "address"
        },
        {
          "internalType": "address",
          "name": "account",
          "type": "address"
        }
      ],
      "name": "released",
      "outputs": [
        {
          "internalType": "uint256",
          "name": "",
          "type": "uint256"
        }
      ],
      "stateMutability": "view",
      "type": "function"
    },
    {
      "inputs": [
        {
          "internalType": "address",
          "name": "account",
          "type": "address"
        }
      ],
      "name": "released",
      "outputs": [
        {
          "internalType": "uint256",
          "name": "",
          "type": "uint256"
        }
      ],
      "stateMutability": "view",
      "type": "function"
    },
    {
      "inputs": [
        {
          "internalType": "bytes32",
          "name": "role",
          "type": "bytes32"
        },
        {
          "internalType": "address",
          "name": "account",
          "type": "address"
        }
      ],
      "name": "renounceRole",
      "outputs": [],
      "stateMutability": "nonpayable",
      "type": "function"
    },
    {
      "inputs": [
        {
          "internalType": "bytes32",
          "name": "role",
          "type": "bytes32"
        },
        {
          "internalType": "address",
          "name": "account",
          "type": "address"
        }
      ],
      "name": "revokeRole",
      "outputs": [],
      "stateMutability": "nonpayable",
      "type": "function"
    },
    {
      "inputs": [
        {
          "internalType": "address",
          "name": "from",
          "type": "address"
        },
        {
          "internalType": "address",
          "name": "to",
          "type": "address"
        },
        {
          "internalType": "uint256",
          "name": "tokenId",
          "type": "uint256"
        }
      ],
      "name": "safeTransferFrom",
      "outputs": [],
      "stateMutability": "nonpayable",
      "type": "function"
    },
    {
      "inputs": [
        {
          "internalType": "address",
          "name": "from",
          "type": "address"
        },
        {
          "internalType": "address",
          "name": "to",
          "type": "address"
        },
        {
          "internalType": "uint256",
          "name": "tokenId",
          "type": "uint256"
        },
        {
          "internalType": "bytes",
          "name": "_data",
          "type": "bytes"
        }
      ],
      "name": "safeTransferFrom",
      "outputs": [],
      "stateMutability": "nonpayable",
      "type": "function"
    },
    {
      "inputs": [
        {
          "internalType": "address",
          "name": "operator",
          "type": "address"
        },
        {
          "internalType": "bool",
          "name": "approved",
          "type": "bool"
        }
      ],
      "name": "setApprovalForAll",
      "outputs": [],
      "stateMutability": "nonpayable",
      "type": "function"
    },
    {
      "inputs": [
        {
          "internalType": "string",
          "name": "__baseURI",
          "type": "string"
        }
      ],
      "name": "setBaseURI",
      "outputs": [],
      "stateMutability": "nonpayable",
      "type": "function"
    },
    {
      "inputs": [
        {
          "internalType": "bool",
          "name": "_isSaleActive",
          "type": "bool"
        }
      ],
      "name": "setIsSaleActive",
      "outputs": [],
      "stateMutability": "nonpayable",
      "type": "function"
    },
    {
      "inputs": [
        {
          "internalType": "uint256",
          "name": "_maxPerWallet",
          "type": "uint256"
        }
      ],
      "name": "setMaxMintPerWallet",
      "outputs": [],
      "stateMutability": "nonpayable",
      "type": "function"
    },
    {
      "inputs": [
        {
          "internalType": "uint256",
          "name": "_mintPrice",
          "type": "uint256"
        }
      ],
      "name": "setMintPrice",
      "outputs": [],
      "stateMutability": "nonpayable",
      "type": "function"
    },
    {
      "inputs": [
        {
          "internalType": "address",
          "name": "account",
          "type": "address"
        }
      ],
      "name": "shares",
      "outputs": [
        {
          "internalType": "uint256",
          "name": "",
          "type": "uint256"
        }
      ],
      "stateMutability": "view",
      "type": "function"
    },
    {
      "inputs": [
        {
          "internalType": "bytes4",
          "name": "interfaceID",
          "type": "bytes4"
        }
      ],
      "name": "supportsInterface",
      "outputs": [
        {
          "internalType": "bool",
          "name": "",
          "type": "bool"
        }
      ],
      "stateMutability": "view",
      "type": "function"
    },
    {
      "inputs": [],
      "name": "symbol",
      "outputs": [
        {
          "internalType": "string",
          "name": "",
          "type": "string"
        }
      ],
      "stateMutability": "view",
      "type": "function"
    },
    {
      "inputs": [
        {
          "internalType": "uint256",
          "name": "tokenId",
          "type": "uint256"
        }
      ],
      "name": "tokenURI",
      "outputs": [
        {
          "internalType": "string",
          "name": "",
          "type": "string"
        }
      ],
      "stateMutability": "view",
      "type": "function"
    },
    {
      "inputs": [
        {
          "internalType": "contract IERC20",
          "name": "token",
          "type": "address"
        }
      ],
      "name": "totalReleased",
      "outputs": [
        {
          "internalType": "uint256",
          "name": "",
          "type": "uint256"
        }
      ],
      "stateMutability": "view",
      "type": "function"
    },
    {
      "inputs": [],
      "name": "totalReleased",
      "outputs": [
        {
          "internalType": "uint256",
          "name": "",
          "type": "uint256"
        }
      ],
      "stateMutability": "view",
      "type": "function"
    },
    {
      "inputs": [],
      "name": "totalShares",
      "outputs": [
        {
          "internalType": "uint256",
          "name": "",
          "type": "uint256"
        }
      ],
      "stateMutability": "view",
      "type": "function"
    },
    {
      "inputs": [],
      "name": "totalSupply",
      "outputs": [
        {
          "internalType": "uint256",
          "name": "",
          "type": "uint256"
        }
      ],
      "stateMutability": "view",
      "type": "function"
    },
    {
      "inputs": [
        {
          "internalType": "address",
          "name": "from",
          "type": "address"
        },
        {
          "internalType": "address",
          "name": "to",
          "type": "address"
        },
        {
          "internalType": "uint256",
          "name": "tokenId",
          "type": "uint256"
        }
      ],
      "name": "transferFrom",
      "outputs": [],
      "stateMutability": "nonpayable",
      "type": "function"
    },
    {
      "stateMutability": "payable",
      "type": "receive"
    }
  ],
  "bytecode": {
    "object": "0x6080604052600260115566f52322698080006012553480156200002157600080fd5b506040516200314b3803806200314b8339810160408190526200004491620006fd565b604080518082018252600f81526e4d616420506172726f74204372657760881b6020808301918252835180850190945260038452624d504360e81b908401528151859385939290916200009a9160029162000558565b508051620000b090600390602084019062000558565b506000805550508051825114620001295760405162461bcd60e51b815260206004820152603260248201527f5061796d656e7453706c69747465723a2070617965657320616e6420736861726044820152710cae640d8cadccee8d040dad2e6dac2e8c6d60731b60648201526084015b60405180910390fd5b60008251116200017c5760405162461bcd60e51b815260206004820152601a60248201527f5061796d656e7453706c69747465723a206e6f20706179656573000000000000604482015260640162000120565b60005b8251811015620001e857620001d3838281518110620001a257620001a2620007e1565b6020026020010151838381518110620001bf57620001bf620007e1565b60200260200101516200021060201b60201c565b80620001df816200080d565b9150506200017f565b50620001fa91506000905084620003fe565b62000207600033620003fe565b50505062000880565b6001600160a01b0382166200027d5760405162461bcd60e51b815260206004820152602c60248201527f5061796d656e7453706c69747465723a206163636f756e74206973207468652060448201526b7a65726f206164647265737360a01b606482015260840162000120565b60008111620002cf5760405162461bcd60e51b815260206004820152601d60248201527f5061796d656e7453706c69747465723a20736861726573206172652030000000604482015260640162000120565b6001600160a01b0382166000908152600a6020526040902054156200034b5760405162461bcd60e51b815260206004820152602b60248201527f5061796d656e7453706c69747465723a206163636f756e7420616c726561647960448201526a206861732073686172657360a81b606482015260840162000120565b600c8054600181019091557fdf6966c971051c3d54ec59162606531493a51404a002842f56009d7e5cf4a8c70180546001600160a01b0319166001600160a01b0384169081179091556000908152600a60205260409020819055600854620003b590829062000829565b600855604080516001600160a01b0384168152602081018390527f40c340f65e17194d14ddddb073d3c9f888e3cb52b5aae0c6c7706b4fbc905fac910160405180910390a15050565b6200041582826200044160201b620015961760201c565b60008281526010602090815260409091206200043c9183906200161c620004e6821b17901c565b505050565b6000828152600f602090815260408083206001600160a01b038516845290915290205460ff16620004e2576000828152600f602090815260408083206001600160a01b03851684529091529020805460ff19166001179055620004a13390565b6001600160a01b0316816001600160a01b0316837f2f8788117e7eff1d82e926ec794901d17c78024a50270940304540a733656f0d60405160405180910390a45b5050565b6000620004fd836001600160a01b03841662000506565b90505b92915050565b60008181526001830160205260408120546200054f5750815460018181018455600084815260208082209093018490558454848252828601909352604090209190915562000500565b50600062000500565b828054620005669062000844565b90600052602060002090601f0160209004810192826200058a5760008555620005d5565b82601f10620005a557805160ff1916838001178555620005d5565b82800160010185558215620005d5579182015b82811115620005d5578251825591602001919060010190620005b8565b50620005e3929150620005e7565b5090565b5b80821115620005e35760008155600101620005e8565b80516001600160a01b03811681146200061657600080fd5b919050565b634e487b7160e01b600052604160045260246000fd5b604051601f8201601f191681016001600160401b03811182821017156200065c576200065c6200061b565b604052919050565b60006001600160401b038211156200068057620006806200061b565b5060051b60200190565b600082601f8301126200069c57600080fd5b81516020620006b5620006af8362000664565b62000631565b82815260059290921b84018101918181019086841115620006d557600080fd5b8286015b84811015620006f25780518352918301918301620006d9565b509695505050505050565b6000806000606084860312156200071357600080fd5b6200071e84620005fe565b602085810151919450906001600160401b03808211156200073e57600080fd5b818701915087601f8301126200075357600080fd5b815162000764620006af8262000664565b81815260059190911b8301840190848101908a8311156200078457600080fd5b938501935b82851015620007ad576200079d85620005fe565b8252938501939085019062000789565b60408a01519097509450505080831115620007c757600080fd5b5050620007d7868287016200068a565b9150509250925092565b634e487b7160e01b600052603260045260246000fd5b634e487b7160e01b600052601160045260246000fd5b600060018201620008225762000822620007f7565b5060010190565b600082198211156200083f576200083f620007f7565b500190565b600181811c908216806200085957607f821691505b6020821081036200087a57634e487b7160e01b600052602260045260246000fd5b50919050565b6128bb80620008906000396000f3fe6080604052600436106102815760003560e01c80638b83209b1161014f578063b88d4fde116100c1578063d547741f1161007a578063d547741f146107fc578063d79779b21461081c578063e33b7de314610852578063e985e9c514610867578063f259a29e146108b0578063f4a0a528146108c557600080fd5b8063b88d4fde14610726578063c45ac05014610746578063c87b56dd14610766578063ca15c87314610786578063ce7c2ac2146107a6578063d2d65ff5146107dc57600080fd5b806395d89b411161011357806395d89b41146106665780639852595c1461067b578063a217fddf146106b1578063a22cb465146106c6578063a3f8eace146106e6578063afdf61341461070657600080fd5b80638b83209b146105de5780638da5cb5b146105fe5780639010d07c1461061357806391d148541461063357806394bf804d1461065357600080fd5b806332cb6b0c116101f357806348b75044116101ac57806348b750441461052e57806355f804b31461054e578063564566a81461056e5780636352211e146105885780636817c76c146105a857806370a08231146105be57600080fd5b806332cb6b0c1461046757806336568abe1461047d5780633a98ef391461049d578063406072a9146104b257806342842e0e146104f8578063453c23101461051857600080fd5b80630fc50ebb116102455780630fc50ebb1461039557806318160ddd146103b457806319165587146103d757806323b872dd146103f7578063248a9ca3146104175780632f2ff15d1461044757600080fd5b806301ffc9a7146102cf57806306fdde0314610304578063081812fc14610326578063095ea7b31461035e5780630d7982ad1461038057600080fd5b366102ca577f6ef95f06320e7a25a04a175ca677b7052bdd97131872c2192525a629f51be77033604080516001600160a01b0390921682523460208301520160405180910390a1005b600080fd5b3480156102db57600080fd5b506102ef6102ea366004612233565b6108e5565b60405190151581526020015b60405180910390f35b34801561031057600080fd5b50610319610905565b6040516102fb91906122a8565b34801561033257600080fd5b506103466103413660046122bb565b610997565b6040516001600160a01b0390911681526020016102fb565b34801561036a57600080fd5b5061037e6103793660046122e9565b6109db565b005b34801561038c57600080fd5b5061037e610a7b565b3480156103a157600080fd5b506014546102ef90610100900460ff1681565b3480156103c057600080fd5b50600154600054035b6040519081526020016102fb565b3480156103e357600080fd5b5061037e6103f2366004612315565b610af5565b34801561040357600080fd5b5061037e610412366004612332565b610bdc565b34801561042357600080fd5b506103c96104323660046122bb565b6000908152600f602052604090206001015490565b34801561045357600080fd5b5061037e610462366004612373565b610d74565b34801561047357600080fd5b506103c9611b3981565b34801561048957600080fd5b5061037e610498366004612373565b610d9e565b3480156104a957600080fd5b506008546103c9565b3480156104be57600080fd5b506103c96104cd3660046123a3565b6001600160a01b039182166000908152600e6020908152604080832093909416825291909152205490565b34801561050457600080fd5b5061037e610513366004612332565b610e1c565b34801561052457600080fd5b506103c960115481565b34801561053a57600080fd5b5061037e6105493660046123a3565b610e37565b34801561055a57600080fd5b5061037e61056936600461245d565b610f48565b34801561057a57600080fd5b506014546102ef9060ff1681565b34801561059457600080fd5b506103466105a33660046122bb565b610f66565b3480156105b457600080fd5b506103c960125481565b3480156105ca57600080fd5b506103c96105d9366004612315565b610f71565b3480156105ea57600080fd5b506103466105f93660046122bb565b610fc0565b34801561060a57600080fd5b50610346610ff0565b34801561061f57600080fd5b5061034661062e3660046124a6565b611001565b34801561063f57600080fd5b506102ef61064e366004612373565b611020565b61037e610661366004612373565b61104b565b34801561067257600080fd5b5061031961120e565b34801561068757600080fd5b506103c9610696366004612315565b6001600160a01b03166000908152600b602052604090205490565b3480156106bd57600080fd5b506103c9600081565b3480156106d257600080fd5b5061037e6106e13660046124d6565b61121d565b3480156106f257600080fd5b506103c9610701366004612315565b6112b2565b34801561071257600080fd5b5061037e6107213660046122bb565b6112f3565b34801561073257600080fd5b5061037e610741366004612504565b611304565b34801561075257600080fd5b506103c96107613660046123a3565b61134e565b34801561077257600080fd5b506103196107813660046122bb565b611419565b34801561079257600080fd5b506103c96107a13660046122bb565b61149c565b3480156107b257600080fd5b506103c96107c1366004612315565b6001600160a01b03166000908152600a602052604090205490565b3480156107e857600080fd5b5061037e6107f7366004612584565b6114b3565b34801561080857600080fd5b5061037e610817366004612373565b6114d2565b34801561082857600080fd5b506103c9610837366004612315565b6001600160a01b03166000908152600d602052604090205490565b34801561085e57600080fd5b506009546103c9565b34801561087357600080fd5b506102ef6108823660046123a3565b6001600160a01b03918216600090815260076020908152604080832093909416825291909152205460ff1690565b3480156108bc57600080fd5b506103196114f7565b3480156108d157600080fd5b5061037e6108e03660046122bb565b611585565b60006108f082611631565b806108ff57506108ff8261167f565b92915050565b606060028054610914906125a1565b80601f0160208091040260200160405190810160405280929190818152602001828054610940906125a1565b801561098d5780601f106109625761010080835404028352916020019161098d565b820191906000526020600020905b81548152906001019060200180831161097057829003601f168201915b5050505050905090565b60006109a2826116a4565b6109bf576040516333d1c03960e21b815260040160405180910390fd5b506000908152600660205260409020546001600160a01b031690565b60006109e682610f66565b9050336001600160a01b03821614610a1f57610a028133610882565b610a1f576040516367d9dca160e11b815260040160405180910390fd5b60008281526006602052604080822080546001600160a01b0319166001600160a01b0387811691821790925591518593918516917f8c5be1e5ebec7d5bd14f71427d1e84f3dd0314c0f7b2291e5b200ac8c7c3b92591a4505050565b6000610a86816116cb565b601454610100900460ff1615610ae35760405162461bcd60e51b815260206004820152601960248201527f4d696e74696e6720697320616c7265616479206c6f636b65640000000000000060448201526064015b60405180910390fd5b506014805461ff001916610100179055565b6001600160a01b0381166000908152600a6020526040902054610b2a5760405162461bcd60e51b8152600401610ada906125db565b6000610b35826112b2565b905080600003610b575760405162461bcd60e51b8152600401610ada90612621565b8060096000828254610b699190612682565b90915550506001600160a01b0382166000908152600b60205260409020805482019055610b9682826116d8565b604080516001600160a01b0384168152602081018390527fdf20fd1e76bc69d672e4814fafb2c449bba3a5369d8359adf9e05e6fde87b056910160405180910390a15050565b6000610be7826117f1565b9050836001600160a01b0316816001600160a01b031614610c1a5760405162a1148160e81b815260040160405180910390fd5b60008281526006602052604090208054338082146001600160a01b03881690911417610c6757610c4a8633610882565b610c6757604051632ce44b5f60e11b815260040160405180910390fd5b6001600160a01b038516610c8e57604051633a954ecd60e21b815260040160405180910390fd5b8015610c9957600082555b6001600160a01b038681166000908152600560205260408082208054600019019055918716808252919020805460010190554260a01b17600160e11b17600085815260046020526040812091909155600160e11b84169003610d2b57600184016000818152600460205260408120549003610d29576000548114610d295760008181526004602052604090208490555b505b83856001600160a01b0316876001600160a01b03167fddf252ad1be2c89b69c2b068fc378daa952ba7f163c4a11628f55a4df523b3ef60405160405180910390a4505050505050565b6000828152600f6020526040902060010154610d8f816116cb565b610d998383611858565b505050565b6001600160a01b0381163314610e0e5760405162461bcd60e51b815260206004820152602f60248201527f416363657373436f6e74726f6c3a2063616e206f6e6c792072656e6f756e636560448201526e103937b632b9903337b91039b2b63360891b6064820152608401610ada565b610e18828261187a565b5050565b610d9983838360405180602001604052806000815250611304565b6001600160a01b0381166000908152600a6020526040902054610e6c5760405162461bcd60e51b8152600401610ada906125db565b6000610e78838361134e565b905080600003610e9a5760405162461bcd60e51b8152600401610ada90612621565b6001600160a01b0383166000908152600d602052604081208054839290610ec2908490612682565b90915550506001600160a01b038084166000908152600e60209081526040808320938616835292905220805482019055610efd83838361189c565b604080516001600160a01b038481168252602082018490528516917f3be5b7a71e84ed12875d241991c70855ac5817d847039e17a9d895c1ceb0f18a910160405180910390a2505050565b6000610f53816116cb565b8151610d99906013906020850190612184565b60006108ff826117f1565b60006001600160a01b038216610f9a576040516323d3ad8160e21b815260040160405180910390fd5b506001600160a01b031660009081526005602052604090205467ffffffffffffffff1690565b6000600c8281548110610fd557610fd561269a565b6000918252602090912001546001600160a01b031692915050565b6000610ffc8180611001565b905090565b600082815260106020526040812061101990836118ee565b9392505050565b6000918252600f602090815260408084206001600160a01b0393909316845291905290205460ff1690565b601454610100900460ff16156110975760405162461bcd60e51b8152602060048201526011602482015270135a5b9d1a5b99c81a5cc81b1bd8dad959607a1b6044820152606401610ada565b60145460ff166110de5760405162461bcd60e51b815260206004820152601260248201527153616c65206973206e6f742061637469766560701b6044820152606401610ada565b6011546001600160a01b0382166000908152600560205260409081902054611111911c67ffffffffffffffff1684612682565b11156111585760405162461bcd60e51b8152602060048201526016602482015275115e18d959591cc81b585e081c195c881dd85b1b195d60521b6044820152606401610ada565b8160125461116691906126b0565b34146111a75760405162461bcd60e51b815260206004820152601060248201526f2737ba1032b737bab3b41032ba3432b960811b6044820152606401610ada565b611b396111b76001546000540390565b6111c19084612682565b11156112045760405162461bcd60e51b815260206004820152601260248201527145786365656473206d617820737570706c7960701b6044820152606401610ada565b610e1881836118fa565b606060038054610914906125a1565b336001600160a01b038316036112465760405163b06307db60e01b815260040160405180910390fd5b3360008181526007602090815260408083206001600160a01b03871680855290835292819020805460ff191686151590811790915590519081529192917f17307eab39ab6107e8899845ad3d59bd9653f200f220920489ca2b5937696c31910160405180910390a35050565b6000806112be60095490565b6112c89047612682565b905061101983826112ee866001600160a01b03166000908152600b602052604090205490565b6119da565b60006112fe816116cb565b50601155565b61130f848484610bdc565b6001600160a01b0383163b156113485761132b84848484611a18565b611348576040516368d2bf6b60e11b815260040160405180910390fd5b50505050565b6001600160a01b0382166000908152600d602052604081205481906040516370a0823160e01b81523060048201526001600160a01b038616906370a0823190602401602060405180830381865afa1580156113ad573d6000803e3d6000fd5b505050506040513d601f19601f820116820180604052508101906113d191906126cf565b6113db9190612682565b6001600160a01b038086166000908152600e602090815260408083209388168352929052205490915061141190849083906119da565b949350505050565b6060611424826116a4565b61144157604051630a14c4b560e41b815260040160405180910390fd5b600061144b611b03565b9050805160000361146b5760405180602001604052806000815250611019565b8061147584611b12565b6040516020016114869291906126e8565b6040516020818303038152906040529392505050565b60008181526010602052604081206108ff90611b61565b60006114be816116cb565b506014805460ff1916911515919091179055565b6000828152600f60205260409020600101546114ed816116cb565b610d99838361187a565b60138054611504906125a1565b80601f0160208091040260200160405190810160405280929190818152602001828054611530906125a1565b801561157d5780601f106115525761010080835404028352916020019161157d565b820191906000526020600020905b81548152906001019060200180831161156057829003601f168201915b505050505081565b6000611590816116cb565b50601255565b6115a08282611020565b610e18576000828152600f602090815260408083206001600160a01b03851684529091529020805460ff191660011790556115d83390565b6001600160a01b0316816001600160a01b0316837f2f8788117e7eff1d82e926ec794901d17c78024a50270940304540a733656f0d60405160405180910390a45050565b6000611019836001600160a01b038416611b6b565b60006301ffc9a760e01b6001600160e01b03198316148061166257506380ac58cd60e01b6001600160e01b03198316145b806108ff5750506001600160e01b031916635b5e139f60e01b1490565b60006001600160e01b03198216635a05180f60e01b14806108ff57506108ff82611bba565b60008054821080156108ff575050600090815260046020526040902054600160e01b161590565b6116d58133611bef565b50565b804710156117285760405162461bcd60e51b815260206004820152601d60248201527f416464726573733a20696e73756666696369656e742062616c616e63650000006044820152606401610ada565b6000826001600160a01b03168260405160006040518083038185875af1925050503d8060008114611775576040519150601f19603f3d011682016040523d82523d6000602084013e61177a565b606091505b5050905080610d995760405162461bcd60e51b815260206004820152603a60248201527f416464726573733a20756e61626c6520746f2073656e642076616c75652c207260448201527f6563697069656e74206d617920686176652072657665727465640000000000006064820152608401610ada565b60008160005481101561183f5760008181526004602052604081205490600160e01b8216900361183d575b8060000361101957506000190160008181526004602052604090205461181c565b505b604051636f96cda160e11b815260040160405180910390fd5b6118628282611596565b6000828152601060205260409020610d99908261161c565b6118848282611c48565b6000828152601060205260409020610d999082611caf565b604080516001600160a01b038416602482015260448082018490528251808303909101815260649091019091526020810180516001600160e01b031663a9059cbb60e01b179052610d99908490611cc4565b60006110198383611d96565b6000546001600160a01b03831661192357604051622e076360e81b815260040160405180910390fd5b816000036119445760405163b562e8dd60e01b815260040160405180910390fd5b6001600160a01b038316600081815260056020526040902080546801000000000000000185020190554260a01b6001841460e11b1717600082815260046020526040902055808281015b6040516001830192906001600160a01b038716906000907fddf252ad1be2c89b69c2b068fc378daa952ba7f163c4a11628f55a4df523b3ef908290a480821061198e5760005550505050565b6008546001600160a01b0384166000908152600a602052604081205490918391611a0490866126b0565b611a0e9190612717565b6114119190612739565b604051630a85bd0160e11b81526000906001600160a01b0385169063150b7a0290611a4d903390899088908890600401612750565b6020604051808303816000875af1925050508015611a88575060408051601f3d908101601f19168201909252611a859181019061278d565b60015b611ae6573d808015611ab6576040519150601f19603f3d011682016040523d82523d6000602084013e611abb565b606091505b508051600003611ade576040516368d2bf6b60e11b815260040160405180910390fd5b805181602001fd5b6001600160e01b031916630a85bd0160e11b149050949350505050565b606060138054610914906125a1565b604080516080810191829052607f0190826030600a8206018353600a90045b8015611b4f57600183039250600a81066030018353600a9004611b31565b50819003601f19909101908152919050565b60006108ff825490565b6000818152600183016020526040812054611bb2575081546001818101845560008481526020808220909301849055845484825282860190935260409020919091556108ff565b5060006108ff565b60006001600160e01b03198216637965db0b60e01b14806108ff57506301ffc9a760e01b6001600160e01b03198316146108ff565b611bf98282611020565b610e1857611c0681611dc0565b611c11836020611dd2565b604051602001611c229291906127aa565b60408051601f198184030181529082905262461bcd60e51b8252610ada916004016122a8565b611c528282611020565b15610e18576000828152600f602090815260408083206001600160a01b0385168085529252808320805460ff1916905551339285917ff6391f5c32d9c69d2a47ea670b442974b53935d1edc7fd64eb21e047a839171b9190a45050565b6000611019836001600160a01b038416611f6e565b6000611d19826040518060400160405280602081526020017f5361666545524332303a206c6f772d6c6576656c2063616c6c206661696c6564815250856001600160a01b03166120619092919063ffffffff16565b805190915015610d995780806020019051810190611d37919061281f565b610d995760405162461bcd60e51b815260206004820152602a60248201527f5361666545524332303a204552433230206f7065726174696f6e20646964206e6044820152691bdd081cdd58d8d9595960b21b6064820152608401610ada565b6000826000018281548110611dad57611dad61269a565b9060005260206000200154905092915050565b60606108ff6001600160a01b03831660145b60606000611de18360026126b0565b611dec906002612682565b67ffffffffffffffff811115611e0457611e046123d1565b6040519080825280601f01601f191660200182016040528015611e2e576020820181803683370190505b509050600360fc1b81600081518110611e4957611e4961269a565b60200101906001600160f81b031916908160001a905350600f60fb1b81600181518110611e7857611e7861269a565b60200101906001600160f81b031916908160001a9053506000611e9c8460026126b0565b611ea7906001612682565b90505b6001811115611f1f576f181899199a1a9b1b9c1cb0b131b232b360811b85600f1660108110611edb57611edb61269a565b1a60f81b828281518110611ef157611ef161269a565b60200101906001600160f81b031916908160001a90535060049490941c93611f188161283c565b9050611eaa565b5083156110195760405162461bcd60e51b815260206004820181905260248201527f537472696e67733a20686578206c656e67746820696e73756666696369656e746044820152606401610ada565b60008181526001830160205260408120548015612057576000611f92600183612739565b8554909150600090611fa690600190612739565b905081811461200b576000866000018281548110611fc657611fc661269a565b9060005260206000200154905080876000018481548110611fe957611fe961269a565b6000918252602080832090910192909255918252600188019052604090208390555b855486908061201c5761201c612853565b6001900381819060005260206000200160009055905585600101600086815260200190815260200160002060009055600193505050506108ff565b60009150506108ff565b6060611411848460008585600080866001600160a01b031685876040516120889190612869565b60006040518083038185875af1925050503d80600081146120c5576040519150601f19603f3d011682016040523d82523d6000602084013e6120ca565b606091505b50915091506120db878383876120e6565b979650505050505050565b6060831561215557825160000361214e576001600160a01b0385163b61214e5760405162461bcd60e51b815260206004820152601d60248201527f416464726573733a2063616c6c20746f206e6f6e2d636f6e74726163740000006044820152606401610ada565b5081611411565b611411838381511561216a5781518083602001fd5b8060405162461bcd60e51b8152600401610ada91906122a8565b828054612190906125a1565b90600052602060002090601f0160209004810192826121b257600085556121f8565b82601f106121cb57805160ff19168380011785556121f8565b828001600101855582156121f8579182015b828111156121f85782518255916020019190600101906121dd565b50612204929150612208565b5090565b5b808211156122045760008155600101612209565b6001600160e01b0319811681146116d557600080fd5b60006020828403121561224557600080fd5b81356110198161221d565b60005b8381101561226b578181015183820152602001612253565b838111156113485750506000910152565b60008151808452612294816020860160208601612250565b601f01601f19169290920160200192915050565b602081526000611019602083018461227c565b6000602082840312156122cd57600080fd5b5035919050565b6001600160a01b03811681146116d557600080fd5b600080604083850312156122fc57600080fd5b8235612307816122d4565b946020939093013593505050565b60006020828403121561232757600080fd5b8135611019816122d4565b60008060006060848603121561234757600080fd5b8335612352816122d4565b92506020840135612362816122d4565b929592945050506040919091013590565b6000806040838503121561238657600080fd5b823591506020830135612398816122d4565b809150509250929050565b600080604083850312156123b657600080fd5b82356123c1816122d4565b91506020830135612398816122d4565b634e487b7160e01b600052604160045260246000fd5b600067ffffffffffffffff80841115612402576124026123d1565b604051601f8501601f19908116603f0116810190828211818310171561242a5761242a6123d1565b8160405280935085815286868601111561244357600080fd5b858560208301376000602087830101525050509392505050565b60006020828403121561246f57600080fd5b813567ffffffffffffffff81111561248657600080fd5b8201601f8101841361249757600080fd5b611411848235602084016123e7565b600080604083850312156124b957600080fd5b50508035926020909101359150565b80151581146116d557600080fd5b600080604083850312156124e957600080fd5b82356124f4816122d4565b91506020830135612398816124c8565b6000806000806080858703121561251a57600080fd5b8435612525816122d4565b93506020850135612535816122d4565b925060408501359150606085013567ffffffffffffffff81111561255857600080fd5b8501601f8101871361256957600080fd5b612578878235602084016123e7565b91505092959194509250565b60006020828403121561259657600080fd5b8135611019816124c8565b600181811c908216806125b557607f821691505b6020821081036125d557634e487b7160e01b600052602260045260246000fd5b50919050565b60208082526026908201527f5061796d656e7453706c69747465723a206163636f756e7420686173206e6f2060408201526573686172657360d01b606082015260800190565b6020808252602b908201527f5061796d656e7453706c69747465723a206163636f756e74206973206e6f742060408201526a191d59481c185e5b595b9d60aa1b606082015260800190565b634e487b7160e01b600052601160045260246000fd5b600082198211156126955761269561266c565b500190565b634e487b7160e01b600052603260045260246000fd5b60008160001904831182151516156126ca576126ca61266c565b500290565b6000602082840312156126e157600080fd5b5051919050565b600083516126fa818460208801612250565b83519083019061270e818360208801612250565b01949350505050565b60008261273457634e487b7160e01b600052601260045260246000fd5b500490565b60008282101561274b5761274b61266c565b500390565b6001600160a01b03858116825284166020820152604081018390526080606082018190526000906127839083018461227c565b9695505050505050565b60006020828403121561279f57600080fd5b81516110198161221d565b7f416363657373436f6e74726f6c3a206163636f756e74200000000000000000008152600083516127e2816017850160208801612250565b7001034b99036b4b9b9b4b733903937b6329607d1b6017918401918201528351612813816028840160208801612250565b01602801949350505050565b60006020828403121561283157600080fd5b8151611019816124c8565b60008161284b5761284b61266c565b506000190190565b634e487b7160e01b600052603160045260246000fd5b6000825161287b818460208701612250565b919091019291505056fea2646970667358221220309b619470937a9151b083c43c82915e686043537fca211ec5bc08b79e46a57664736f6c634300080d0033",
    "linkReferences": {}
  },
  "methodIdentifiers": {
    "DEFAULT_ADMIN_ROLE()": "a217fddf",
    "MAX_SUPPLY()": "32cb6b0c",
    "approve(address,uint256)": "095ea7b3",
    "balanceOf(address)": "70a08231",
    "baseURI_()": "f259a29e",
    "getApproved(uint256)": "081812fc",
    "getRoleAdmin(bytes32)": "248a9ca3",
    "getRoleMember(bytes32,uint256)": "9010d07c",
    "getRoleMemberCount(bytes32)": "ca15c873",
    "grantRole(bytes32,address)": "2f2ff15d",
    "hasRole(bytes32,address)": "91d14854",
    "isApprovedForAll(address,address)": "e985e9c5",
    "isSaleActive()": "564566a8",
    "lockMinting()": "0d7982ad",
    "maxPerWallet()": "453c2310",
    "mint(uint256,address)": "94bf804d",
    "mintPrice()": "6817c76c",
    "mintingLocked()": "0fc50ebb",
    "name()": "06fdde03",
    "owner()": "8da5cb5b",
    "ownerOf(uint256)": "6352211e",
    "payee(uint256)": "8b83209b",
    "releasable(address)": "a3f8eace",
    "releasable(address,address)": "c45ac050",
    "release(address)": "19165587",
    "release(address,address)": "48b75044",
    "released(address)": "9852595c",
    "released(address,address)": "406072a9",
    "renounceRole(bytes32,address)": "36568abe",
    "revokeRole(bytes32,address)": "d547741f",
    "safeTransferFrom(address,address,uint256)": "42842e0e",
    "safeTransferFrom(address,address,uint256,bytes)": "b88d4fde",
    "setApprovalForAll(address,bool)": "a22cb465",
    "setBaseURI(string)": "55f804b3",
    "setIsSaleActive(bool)": "d2d65ff5",
    "setMaxMintPerWallet(uint256)": "afdf6134",
    "setMintPrice(uint256)": "f4a0a528",
    "shares(address)": "ce7c2ac2",
    "supportsInterface(bytes4)": "01ffc9a7",
    "symbol()": "95d89b41",
    "tokenURI(uint256)": "c87b56dd",
    "totalReleased()": "e33b7de3",
    "totalReleased(address)": "d79779b2",
    "totalShares()": "3a98ef39",
    "totalSupply()": "18160ddd",
    "transferFrom(address,address,uint256)": "23b872dd"
  },
  "id": 22
}